:020000040800F2
:10000000180D002081870008A3150008A515000819
:10001000A9150008AD150008B11500080000000082
:10002000000000000000000000000000B5150008FE
:10003000B715000800000000B9150008BB1500083E
:100040009B8700089B8700089B8700089B87000808
:100050009B8700089B870008056F0008F76F000862
:10006000AD700008C77100089B8700089B870008D7
:100070009B8700089B8700089B8700089B870008D8
:100080009B8700089B8700089B8700089B870008C8
:100090009B8700089B8700089B8700089B870008B8
:1000A0009B8700089B8700089B8700089B870008A8
:1000B0009B8700089B8700089B8700089B87000898
:1000C0009B8700089B8700089B8700089B87000888
:1000D0009B8700087D130008F71300089B87000822
:1000E0009B8700089B8700089B8700089B87000868
:1000F0009B8700089B8700089B8700089B87000858
:100100009B8700089B8700089B8700089B87000847
:10011000291500089B8700089B8700089B8700081B
:100120009B8700089B8700089B8700089B87000827
:100130009B8700089B8700089B8700089B87000817
:100140009B8700089B8700089B8700089B87000807
:100150009B8700089B8700089B8700089B870008F7
:100160009B8700089B8700089B8700089B870008E7
:100170009B8700089B8700089B8700089B870008D7
:100180009B8700089B87000800F002F800F092F8B7
:100190000AA090E8000C82448344AAF10107DA45E2
:1001A00001D100F087F8AFF2090EBAE80F0013F0A2
:1001B000010F18BFFB1A43F001031847A4D3000036
:1001C000C4D30000103A24BF78C878C1FAD85207C7
:1001D00024BF30C830C144BF04680C6070470000C1
:1001E0000023002400250026103A28BF78C1FBD840
:1001F000520728BF30C148BF0B6070476E290AF014
:100200003F80702909F00B8666290BF0DE84652992
:100210000BF0DB8467290BF0D8846129AFF30080F1
:1002200003681B0A28BF41F08001692909F0EC87A7
:10023000642909F0E987752909F0E6876F290AF032
:100240002881782909F0D785E9290AF0C380E429B3
:100250000AF0C080F5290AF0BD80EF290AF0258157
:10026000F82909F0D6850368DB0928BF41F0800131
:1002700063290AF0DC8373290AF0E183E3290AF099
:10028000EC83F3290AF0F183002070471FB50BF0CF
:1002900092FC0AF03FFC0400002000210BF03CF926
:1002A000401C6060002000210BF020F9E0601FBDC1
:1002B00010B510BD0AF001FC1146FFF7E7FF00F092
:1002C00009F80AF0DDFC03B4FFF7F2FF03BC08F005
:1002D00041F800002DED108B8EB04FF4A06008F0B7
:1002E0006FFAA82008F0CAF907F090FF4FF4E13048
:1002F00008F03EF802F02EFE4FF6FF7002F0F8FD17
:100300000A2008F01DFA02E0642008F019FA01F052
:1003100037FC0028F8D102E0642008F011FA01F05F
:10032000A5FE0028F8D14FF47A7008F009FAFEA073
:1003300008F017F906F08EFDFE4890ED070A10EE62
:10034000101A08460BF0C6FB41EC180BF94890ED6B
:10035000060A10EE101A08460BF0BCFB41EC190B14
:10036000F44890ED050A10EE101A08460BF0B2FBA7
:1003700041EC1A0BEF4890ED040A10EE101A0846F3
:100380000BF0A8FB41EC1B0BEA4890ED030A10EEC2
:10039000101A08460BF09EFB41EC1C0BE54890ED53
:1003A000020A10EE101A08460BF094FB41EC1D0BEC
:1003B000E04890ED010A10EE101A08460BF08AFB97
:1003C00041EC1E0BDB4890ED000A10EE101A0846B7
:1003D0000BF080FB41EC1F0B8DED0C8B8DED0A9B20
:1003E0008DED08AB8DED06BB8DED04CB8DED02DB05
:1003F0008DED00EB53EC1F2BCFA008F0B2F8D548E1
:1004000008F0AFF8C7E2D44800780128FAD1D34801
:1004100000780028F6D0D148007801287ED132211A
:10042000CF4806F066FE0020CE490870CC4890ED1B
:10043000000ADFEDCD0A20EE200ADFEDCC0AB4EE93
:10044000E00AF1EE10FA04DD0846007840F0800082
:100450000870C34890ED010ADFEDC30A20EE200AC0
:10046000DFEDC20AB4EEE00AF1EE10FA05DDBD4898
:10047000007840F04000BB490870B94890ED020A8E
:10048000DFEDB90A20EE200ADFEDB80AB4EEE00A8B
:10049000F1EE10FA05DDB348007840F02000B149D4
:1004A0000870AF4890ED030ADFEDAF0A20EE200A96
:1004B000DFEDAE0AB4EEE00AF1EE10FA05DDA94870
:1004C000007840F01000A7490870A54890ED040A94
:1004D000DFEDA50A20EE200ADFEDA40AB4EEE00A63
:1004E000F1EE10FA05DD9F48007840F008009D49C4
:1004F00008709B4890ED050ADFED9B0A20EE200A6C
:10050000DFED9A0AB4EEE00AF1EE10FA05DD954847
:10051000007840F004009349087000E06AE09048D9
:1005200090ED060ADFED900A20EE200ADFED8F0A3B
:10053000B4EEE00AF1EE10FA05DD8A48007840F0EA
:10054000020088490870864890ED070ADFED860AA8
:1005500020EE200ADFED850AB4EEE00AF1EE10FA93
:1005600005DD8048007840F001007E4908707D4834
:10057000007800F0F000702803D17DA007F0F1FFB3
:1005800016E07848007800F0F000602803D17BA0E6
:1005900007F0E7FF0CE07348007800F0F000F02867
:1005A00003D179A007F0DDFF02E079A007F0D9FFC1
:1005B0006C48007800F00F00072803D179A007F0FD
:1005C000D0FF1FE76748007800F00F00062803D12E
:1005D00077A007F0C6FF15E76248007800F00F002B
:1005E0000F2803D175A007F0BCFF0BE775A007F03B
:1005F000B8FF07E75948007802287DD132215848D2
:1006000006F077FD0020744908709FED740A744865
:1006100080ED000A9FED710A724880ED000A504893
:1006200090ED000ADFED500A20EE200ADFED4F0AC0
:10063000B4EEE00AF1EE10FA04DD0846007840F06E
:10064000800008704648D0ED000A654890ED000A29
:100650009FED451A00EE810A80ED000A404890EDBA
:10066000010ADFED410A20EE200ADFED400AB4EE78
:10067000E00AF1EE10FA05DD5748007840F040003E
:10068000554908703648D0ED010A554890ED000AEA
:100690009FED351A00EE810A80ED000A304890ED9A
:1006A000020ADFED310A20EE200ADFED300AB4EE57
:1006B000E00AF1EE10FA05DD4748007840F020002E
:1006C000454908702648D0ED020A454890ED000AD9
:1006D0009FED251A00EE810A80ED000A204890ED7A
:1006E000030ADFED210A20EE200ADFED200AB4EE36
:1006F000E00AF1EE10FA00E066E105DD3648007828
:1007000040F01000344908701548D0ED030A344811
:1007100090ED000A9FED141A00EE810A80ED000AA8
:100720000F4890ED040A5FE077656C636F6D65219B
:100730000D0A00003002002025662C25662C256657
:100740002C25662C25662C25662C25662C256620F6
:100750000D0A000084D400082D0000202C00002089
:1007600068000020080000200000C8420000FA4293
:10077000D2BBBAC5CAAFCDB721000000D2BBBAC543
:10078000BCF4B5B621000000D2BBBAC5B2BC210092
:10079000D2BBBAC5C7EBC4FAB7C5C9CFC4E3B5C4A9
:1007A000CAD62100B6FEBAC5CAAFCDB72100000037
:1007B000B6FEBAC5BCF4B5B621000000B6FEBAC597
:1007C000B2BC2100B6FEBAC5C7EBC4FAB7C5C9CFE3
:1007D000C4E3B5C4CAD6210009000020000000000F
:1007E00000000020040000205FED210A20EE200A16
:1007F0005FED220AB4EEE00AF1EE10FA05DDF948E9
:10080000007840F00800F7490870F748D0ED040A76
:10081000F64890ED000A1FED2C1A00EE810A80EDDB
:10082000000AF14890ED050A5FED310A20EE200A3A
:100830005FED320AB4EEE00AF1EE10FA05DDE948A8
:10084000007840F00400E7490870E748D0ED050A59
:10085000E64890ED000A1FED3C1A00EE810A80ED9B
:10086000000AE14890ED060A5FED410A20EE200AF9
:100870005FED420AB4EEE00AF1EE10FA05DDD94868
:10088000007840F00200D7490870D748D0ED060A3A
:10089000D64890ED000A1FED4C1A00EE810A80ED5B
:1008A000000AD14890ED070A5FED510A20EE200AB8
:1008B0005FED520AB4EEE00AF1EE10FA05DDC94828
:1008C000007840F00100C7490870C748D0ED070A1A
:1008D000C64890ED000A1FED5C1A00EE810A80ED1B
:1008E000000AC34890ED000ADFEDC20AB4EEE00A48
:1008F000F1EE10FA03DDC0A007F033FE2AE0B9489C
:10090000007800F0F000102803D1BEA007F029FE07
:1009100020E0B448007800F0F000302803D1BCA0FB
:1009200007F01FFE16E0AF48007800F0F0007028D6
:1009300003D1BAA007F015FE0CE0AA48007800F039
:10094000F000F02803D1B8A007F00BFE02E0B9A038
:1009500007F007FEA54890ED000ADFEDA60AB4EE09
:10096000E00AF1EE10FA03DDB7A007F0FAFD49E561
:100970009C48007800F00F00012803D1B5A007F0D3
:10098000F0FD3FE59748007800F00F00032803D101
:10099000B3A007F0E6FD06E29248007800F00F00F1
:1009A000072803D1B1A007F0DCFDFCE18D480078F9
:1009B00000F00F000F2803D1AFA007F0D2FDF2E145
:1009C000B0A007F0CEFDEEE1B348007803283DD19A
:1009D000B248007850B9B2480078012806D1B1A0D9
:1009E00007F0BFFD0020AE490870DCE1AB4800789D
:1009F00001280AD1AA480078012806D1B1A007F041
:100A0000B0FD0020A6490870CDE1A4480078022876
:100A10000AD1A3480078012806D1B2A007F0A1FDB1
:100A200000209F490870BEE19C48007803289ED1B1
:100A30009B48007801289AD1002098490870B1A0FD
:100A400007F08FFD002096490870ACE192480078CD
:100A500004287DD13221644806F04BFB0020B549C3
:100A60000870614890ED000A5FEDC10A20EE200A8F
:100A70005FEDC20AB4EEE00AF1EE10FA04DD0846BA
:100A8000007840F080000870574890ED010A5FED53
:100A9000CA0A20EE200A5FEDCB0AB4EEE00AF1EEBE
:100AA00010FA05DDA348007840F04000A149087025
:100AB0004D4890ED020A5FEDD40A20EE200A5FED6A
:100AC000D50AB4EEE00AF1EE10FA05DD9948007897
:100AD00040F0200097490870434890ED030A5FED0D
:100AE000DE0A20EE200A5FEDDF0AB4EEE00AF1EE46
:100AF00010FA05DD8F48007840F010008D4908702D
:100B0000394890ED040A5FEDE80A20EE200A5FED17
:100B1000E90AB4EEE00AF1EE10FA05DD8548007846
:100B200040F00800834908702F4890ED050A5FEDFA
:100B3000F20A20EE200A5FEDF30AB4EEE00AF1EECD
:100B400010FA07DD7B48007840F00400794900E0A6
:100B50003DE10870244890ED060ADFED770A20EEAB
:100B6000200ADFED760AB4EEE00AF1EE10FA05DDB8
:100B70007048007840F002006E4908701A4890ED05
:100B8000070ADFED6D0A20EE200ADFED6C0AB4EEF5
:100B9000E00AF1EE10FA05DD6648007840F0010049
:100BA000644908706348007800F0F00064490978EF
:100BB00001F0F001884204D1AFF24C4007F0D1FCC3
:100BC000D4E05C48007800F0F0005E49097801F05C
:100BD000F001884204D1AFF25C4007F0C2FCC5E0EE
:100BE000B2E000000900002068000020040000209E
:100BF0000000002000009644D2BBBAC535210D0A82
:100C000000000000D2BBBAC531210D0A000000006F
:100C1000D2BBBAC532210D0A00000000D2BBBAC552
:100C200033210D0A00000000D2BBBAC534210D0AE1
:100C300000000000D2BBBAC5C4E3B7C5C1CBCAD659
:100C4000C2EFA3BF0D0A0000B6FEBAC535210D0ADA
:100C500000000000B6FEBAC531210D0A00000000F8
:100C6000B6FEBAC532210D0A00000000B6FEBAC5B4
:100C700033210D0A00000000B6FEBAC534210D0A6A
:100C800000000000B6FEBAC5C4E3B7C5C1CBCAD6E2
:100C9000C2EFA3BF0D0A00002C0000202E00002090
:100CA00040000020C7EBB7C5C9CFC4E3B5C4CAAF85
:100CB000CDB7A3ACB2A2C7D2B0B4CFC2B0B4C5A5B1
:100CC000340D0A00C7EBB7C5C9CFC4E3B5C4BCF443
:100CD000B5B6A3ACB2A2C7D2B0B4CFC2B0B4C5A5AA
:100CE000340D0A00C7EBB7C5C9CFC4E3B5C4B2BC65
:100CF000A3AC20B2A2C7D2B0B4CFC2B0B4C5A534A1
:100D00000D0A0000D1B5C1B7CDEAB3C9A3A1C7EBA5
:100D1000B9D8B1D5B5B1C7B0C4A3CABDBFAACABC02
:100D2000C4A3CABDA1BE34A1BFB2E2CAD4A3A10D5F
:100D30000A000000080000200000C8420000FA423B
:100D40003000002032000020F748007800F0F0006A
:100D5000F649097801F0F001884204D1AFF2D85089
:100D600007F0FFFB02E0F2A007F0FBFBEE48007883
:100D700000F00F00F349097801F00F01884204D117
:100D8000AFF2E05007F0EDFBCAE2E748007800F070
:100D90000F00ED49097801F00F01884204D1AFF24C
:100DA000F05007F0DEFBBBE2DF48007800F00F00F8
:100DB000DE49097801F00F01884204D1AFF20460E6
:100DC00007F0CFFBACE2E1A007F0CBFBA8E2E448E0
:100DD000007805284CD1E348007850B9E248007803
:100DE000012806D1E1A007F0BCFB0020DE49087015
:100DF00096E2DC48007801280AD1DB480078012817
:100E000006D1E3A007F0ADFB0020D749087087E2C8
:100E1000D448007802280AD1D3480078012806D1A6
:100E2000E4A007F09EFB0020CF49087078E2CD488F
:100E3000007803280AD1CC480078012806D1E6A022
:100E400007F08FFB0020C849087069E2C5480078A8
:100E5000002899D1C4480078012895D10420C149BF
:100E60000870E6A007F07DFB0020BF49087057E23C
:100E7000BB480078062887D13221EC4806F039F9C2
:100E80000020EB4908709FEDEB0AEB4880ED000A6B
:100E90009FEDE80AE94880ED000AE44890ED000A79
:100EA0005FED5B0A20EE200A5FED5C0AB4EEE00A1B
:100EB000F1EE10FA04DD0846007840F0800008707A
:100EC000DA48D0ED000ADC4890ED000A1FED661A02
:100ED00000EE810A80ED000AD44890ED010A5FED32
:100EE0006A0A20EE200A5FED6B0AB4EEE00AF1EE2A
:100EF00010FA05DDCE48007840F04000CC4908707B
:100F0000CA48D0ED010ACC4890ED000A1FED761AD0
:100F100000EE810A80ED000AC44890ED020A5FED00
:100F20007A0A20EE200A5FED7B0AB4EEE00AF1EEC9
:100F300010FA05DDBE48007840F02000BC4908707A
:100F4000BA48D0ED020ABC4890ED000A1FED861A9F
:100F500000EE810A80ED000AB44890ED030A5FEDCF
:100F60008A0A20EE200A5FED8B0AB4EEE00AF1EE69
:100F700010FA05DDAE48007840F01000AC4908706A
:100F8000AA48D0ED030AAC4890ED000A1FED961A6E
:100F900000EE810A80ED000AA44890ED040A5FED9E
:100FA0009A0A20EE200A5FED9B0AB4EEE00AF1EE09
:100FB00010FA05DD9E48007840F008009C49087052
:100FC0009A48D0ED040A9D4890ED000A1FEDA61A3C
:100FD00000EE810A80ED000A944890ED050A5FED6D
:100FE000AA0A20EE200A5FEDAB0AB4EEE00AF1EEA9
:100FF00010FA05DD8E48007840F004008C49087036
:101000008A48D0ED050A8D4890ED000A1FEDB61A0A
:1010100000EE810A80ED000A844890ED060A5FED3B
:10102000BA0A20EE200A5FEDBB0AB4EEE00AF1EE48
:1010300010FA05DD7E48007840F002007C49087017
:101040007A48D0ED060A7D4890ED000A1FEDC61AD9
:1010500000EE810A80ED000A744890ED070A5FED0A
:10106000CA0A20EE200A5FEDCB0AB4EEE00AF1EEE8
:1010700010FA05DD6E48007840F001006C490870F8
:101080006A48D0ED070A6D4890ED000A1FEDD61AA8
:1010900000EE810A80ED000A674890ED000A68487A
:1010A000D0ED000A30EE600A634880ED000A90ED52
:1010B000000ADFED640AB4EEE00AF1EE10FA04DD96
:1010C000AFF2CC4007F04DFAD7E05948007800F075
:1010D000F0005D49097801F0F001884204D1AFF2D7
:1010E000DC4007F03EFAC8E05148007800F0F0001C
:1010F0005649097801F0F001884204D1AFF2F0407E
:1011000007F02FFAB9E04A48007800F0F0005049A3
:10111000097801F0F001884204D1AFF2005007F0E5
:1011200020FAAAE096E0000008000020310000202C
:10113000D2BBBAC5C4E3B5C4CAB6B1F0D3D0CEF3FE
:10114000210000003000002032000020B6FEBAC5A9
:10115000C4E3B5C4CAB6B1F0D3D0CEF321000000C9
:101160002C0000202F00002040000020C7EBB7C556
:10117000C9CFC4E3D2BBB8F9CAD6D6B8A3ACB2A221
:10118000C7D2B0B4CFC2B0B4C5A5340D0A000000B8
:10119000C7EBB7C5C9CFC4E3C1BDB8F9CAD6D6B885
:1011A000A3ACB2A2C7D2B0B4CFC2B0B4C5A5340DFF
:1011B0000A000000C7EBB7C5C9CFC4E3C8FDB8F942
:1011C000CAD6D6B8A3ACB2A2C7D2B0B4CFC2B0B45C
:1011D000C5A5340D0A000000C7EBB7C5C9CFC4E3ED
:1011E000CBC4B8F9CAD6D6B8A3ACB2A2C7D2B0B4F1
:1011F000CFC2B0B4C5A5340D0A000000D1B5C1B747
:10120000CDEAB3C9A3A1C7EBB9D8B1D5B5B1C7B0C1
:10121000C4A3CABDBFAACABCC4A3CABDA1BE36A1CD
:10122000BFB2E2CAD4A3A10D0A00000068000020EA
:101230000900002000000000000000200400002041
:101240003800002000001643330000203400002046
:10125000350000203348007800F0F000324909786A
:1012600001F0F001884204D1AFF2446007F079F94F
:1012700003E0AFF2406007F074F92C4890ED000AEB
:101280002B48D0ED000A30EE600A284880ED000AB5
:1012900090ED000A5FED150AB4EEE00AF1EE10FAE7
:1012A00003DD24A007F05DF93AE01E48007800F065
:1012B0000F002249097801F00F01884203D120A0D4
:1012C00007F04FF92CE01748007800F00F001E4996
:1012D000097801F00F01884203D11CA007F041F901
:1012E0001EE01048007800F00F001A49097801F05C
:1012F0000F01884203D118A007F033F910E0094824
:10130000007800F00F000849097801F00F018842C9
:1013100003D113A007F025F902E013A007F021F98B
:10132000FFF771B8090000203600002004000020FB
:101330003C000020B6FEBAC5352100003300002075
:10134000B6FEBAC53121000034000020B6FEBAC591
:101350003221000035000020B6FEBAC5332100005E
:10136000B6FEBAC534210000B6FEBAC5C4E3B7C59F
:10137000C1CBCAD6C2EFA3BF0000000010B540F237
:1013800025518E4808F012FC10B38C4808F04CFB35
:10139000C4B28B48008800F40040C8B9884800886F
:1013A00000F4804060B10A2C03D0002084490880FA
:1013B00020E08348008840F400408149088019E01B
:1013C0000D2C06D17E48008840F480407C4908807E
:1013D00010E07B480088C0F30D007A490C5478482F
:1013E0000088401C7649088008460088C72801DD2F
:1013F0000020088010BD10B540F22551724808F059
:10140000D5FB002867D0704808F00EFBC4B2214617
:101410006A4808F005FB6D48008800F40040002889
:1014200059D16B48008800F4804090B10A2C05D057
:10143000002066490880664908804CE063480088BF
:1014400040F40040614908800846008860490880EF
:1014500041E06048008800F48040A8B1232C05D00A
:1014600000205A4908805B49088034E057480088CA
:1014700040F40040554908800846008855490880D6
:1014800000205349088026E00D2C06D150480088E2
:1014900040F480404E4908801DE0212C06D14D4883
:1014A000008840F480404B49088014E04748008899
:1014B000C0F30D0048490C5444480088401C43497F
:1014C000088008460088C72805DD002008804049BC
:1014D0000880404908803D48008800F4004010B36F
:1014E0003B48008800F4004060B1C8223A493B48BC
:1014F00008F064FDC821384808F0A5FD00203349F4
:10150000088010E03348008800F4004058B1C82239
:101510003149334808F052FDC8212F4808F093FDA7
:1015200000202A49088010BD10B540F225512D48F1
:1015300008F03CFB10B32B4808F076FAC4B22A48F6
:10154000008800F40040C8B92748008800F48040B3
:1015500060B10A2C03D000202349088020E02248F3
:10156000008840F400402049088019E00D2C06D185
:101570001D48008840F480401B49088010E01A484C
:101580000088C0F30D0019490C5417480088401C0E
:101590001549088008460088C72801DD002008801A
:1015A00010BD704700BFFEE700BFFEE700BFFEE7CB
:1015B00000BFFEE77047704770477047001001405A
:1015C00048000020D0020020004400404A000020D3
:1015D0004E00002050000020980300202805002025
:1015E000F0050020004C00404C000020600400206A
:1015F0000CB50020019000907648006840F48030DF
:101600007449086000BF7348006800F4003000901F
:101610000198401C0190009818B90198B0F5A04FAE
:10162000F1D16C48006800F4003010B10120009046
:1016300001E0002000900098012846D16548403024
:10164000006840F08050634940310860624800689B
:1016500040F44040604908605E48083000685D49D9
:10166000083108600846006840F4004008600846F9
:10167000006840F4A05008605848091F0860081F1F
:10168000006840F08070091F086000BF5148006882
:1016900000F000700028F9D040F205705049086051
:1016A0004C480830006820F003004A4908310860BF
:1016B0000846006840F00200086000BF4548083056
:1016C000006800F00C000828F8D10CBD10B54548A2
:1016D000006840F47000434908603E48006840F0EC
:1016E00001003C49086000203A4908310860394847
:1016F00000683D490840374908603C48091D0860BA
:10170000081F006820F48020091F0860002031496C
:101710000C310860FFF76CFF4FF0006031498039F1
:10172000086010BD70B500200022022300240221B1
:10173000284D08352D6805F00C0020B1042806D08E
:10174000082834D107E02A4D2A4E356033E02A4D6F
:10175000284E35602FE01F4D2D1D2D68C5F3805498
:101760001C4D2D1D2D6805F03F0154B1224DB5FBD8
:10177000F1F5184E361D3668C6F3881605FB06F2DD
:1017800009E01B4DB5FBF1F5124E361D3668C6F368
:10179000881605FB06F20F4D2D1D2D68C5F301457A
:1017A0006D1C6B00B2FBF3F5124E356003E0104D7B
:1017B000104E356000BF00BF064D08352D68C5F3DB
:1017C00003150E4E705D0B4D2D68C540094E3560FA
:1017D00070BD00000038024000700040085440070F
:1017E000003C024088ED00E0FFFFF6FE10300024D0
:1017F0000024F4000C00002000127A0010000020E9
:1018000010B5082006F054FF10BD70471CB501212B
:10181000042007F04DFE3020009001208DF80400D8
:1018200000208DF8060002208DF8050001208DF8BB
:1018300007006946FE4807F0B9F83021FC4807F078
:1018400031F91CBD10B5FA48006820F44060F84931
:1018500008600846006840F480600860012006F0D7
:1018600027FF0120F3490860F349C1F89002FFF710
:10187000C7FF0020EF490860FFF7C2FF0020EE49D4
:10188000C1F8900210BD10B5E948006820F440602E
:10189000E74908600846006840F48060086001205D
:1018A00006F006FF0020E349091F0860E249C1F87D
:1018B0009402FFF7A5FF0120DE49091F0860DE49F9
:1018C000C1F89402FFF79CFF10BD10B50024D84862
:1018D000006820F44060D649086008460068086047
:1018E000012006F0E5FE0120D2490860FFF788FFDD
:1018F0000120D149C1F89002FFF782FF07E0601C88
:1019000084B20A2C03DDFFF7BEFF012010BDC948D9
:10191000803800680028F2D1C649091F086000BF5E
:10192000F4E710B50020C349091F0860C0480068EB
:1019300020F44060BE4908600846006840F48060BA
:101940000860012006F0B4FE0020BB49C1F89402F3
:10195000FFF756FF0120B749091F0860FFF750FF46
:101960000020B549C1F8900210BD10B50020B14962
:10197000091F0860AE48006820F44060AC49086068
:101980000846006840F480600860012006F090FE80
:101990000120A949C1F89402FFF732FF0120A549AF
:1019A000091F0860FFF72CFF0020A349C1F890022F
:1019B00010BD70B504469E48006820F440609C4904
:1019C00008600846006840F480600860012006F066
:1019D0006FFE00209749091F0860002512E0E0090A
:1019E000944908606006040E01209349C1F89002F2
:1019F000FFF706FF00208F49091F0860FFF700FF6F
:101A0000681CC5B2082DEADB70BD70B50546002420
:101A10008748006820F440608549086008460068EF
:101A20000860012006F044FE002615E000208149F0
:101A3000091F0860FFF7E4FE01207F49C1F890020A
:101A40006006040E7B488038006808B1601CC4B290
:101A5000FFF7D6FE701CC6B2082EE7DB15B9FFF7FC
:101A600084FF01E0FFF75DFF204670BD70B50646BC
:101A70000C461546FFF7E6FE5420FFF79AFFFFF7E6
:101A800024FF18B1FFF7FFFE012070BD3046FFF7BD
:101A900090FFFFF71AFF2046FFF78BFFFFF715FFB8
:101AA00018B1FFF7F0FE0120EFE72846FFF781FFAE
:101AB000FFF70BFF18B1FFF7E6FE0120E5E7FFF7A0
:101AC000E2FE0020E1E770B50546FFF7BBFE5420BB
:101AD000FFF76FFFFFF7F9FE2846FFF76AFFFFF7F2
:101AE000F4FEFFF7AFFE5520FFF763FFFFF7EDFEB3
:101AF0000120FFF78AFF04020020FFF786FF04435E
:101B0000FFF7C1FE204670BD70B5054635B1012D09
:101B10000FD0022D18D0032D2CD120E00020FFF78C
:101B2000D2FFC0F30B040120FFF7CDFF40EA0444CD
:101B300021E00220FFF7C7FFC0F30B040320FFF7EB
:101B4000C2FF40EA044416E00420FFF7BCFFC0F3E4
:101B50000B040520FFF7B7FF40EA04440BE0062022
:101B6000FFF7B1FFC0F30B040720FFF7ACFF40EA1B
:101B7000044400E000BF00BF24F07044204670BD64
:101B800070B5FFF742FEFFF741FE7E20FFF79BFF97
:101B900004467F20FFF797FF0546294627A006F059
:101BA000E0FC45F24940844271D1FB2234210820F7
:101BB000FFF75CFFFB2234210920FFF757FFFB22D0
:101BC00034210A20FFF752FFFB2234210B20FFF7BC
:101BD0004DFF0A2200211020FFF748FF0A220021B2
:101BE0001120FFF743FF0A2200211220FFF73EFFDA
:101BF0000A2200211320FFF739FF0222202114209E
:101C0000FFF734FF022220211520FFF72FFF0222C9
:101C100020211620FFF72AFF022220211720FFF79C
:101C200025FF0022F8211E20FFF720FF00220FE0F1
:101C30000008024094024142000041424445564996
:101C400043455F49443A305825780D0A00000000AA
:101C5000F8211F20FFF70AFF0022F8212020FFF7BC
:101C600005FF0022F8212120FFF700FF0022114686
:101C70001920FFF7FBFE0C22C2211B20FFF7F6FE06
:101C8000012214211A20FFF7F1FE02E0FFE70120F4
:101C900070BD0020FCE710B52DED068B04462046F4
:101CA000FFF732FF0D4908600846006809F001FEA1
:101CB00041EC1A0B53EC1A2B9FED090B51EC100B56
:101CC00009F072FC41EC190B09F03CFC08EE100A1B
:101CD00028EE080ABDEC068B10BD00002000002095
:101CE000DBF97E6AB8A8AB4110B5082006F0E0FC2D
:101CF00010BD70471CB50121202007F0D9FB4FF41F
:101D00004070009001208DF8040000208DF806003E
:101D100002208DF8050001208DF807006946FE4875
:101D200006F044FE4FF44071FB4806F0BBFE1CBDBC
:101D300010B5F948006820F44020F74908600846CB
:101D4000006840F480200860012006F0B1FC01200A
:101D5000F2490860F249C1F8A002FFF7C5FF002070
:101D6000EE490860FFF7C0FF0020ED49C1F8A0026E
:101D700010BD10B5E848006820F44020E64908602E
:101D80000846006840F480200860012006F090FCBE
:101D90000020E249091F0860E149C1F8A402FFF7E9
:101DA000A3FF0120DD49091F0860DD49C1F8A40235
:101DB000FFF79AFF10BD10B50024D748006820F443
:101DC0004020D5490860084600680860012006F0F8
:101DD0006FFC0120D1490860FFF786FF0120D04940
:101DE000C1F8A002FFF780FF07E0601C84B20A2C54
:101DF00003DDFFF7BEFF012010BDC8488038006832
:101E00000028F2D1C549091F086000BFF4E710B5EA
:101E10000020C249091F0860BF48006820F4402024
:101E2000BD4908600846006840F480200860012031
:101E300006F03EFC0020BA49C1F8A402FFF754FFA7
:101E40000120B649091F0860FFF74EFF0020B44982
:101E5000C1F8A00210BD10B50020B049091F0860EC
:101E6000AD48006820F44020AB490860084600688F
:101E700040F480200860012006F01AFC0120A849E7
:101E8000C1F8A402FFF730FF0120A449091F086030
:101E9000FFF72AFF0020A249C1F8A00210BD70B5CB
:101EA00004469D48006820F440209B49086008468D
:101EB000006840F480200860012006F0F9FB002053
:101EC0009649091F0860002512E0E009934908605F
:101ED0006006040E01209249C1F8A002FFF704FF3A
:101EE00000208E49091F0860FFF7FEFE681CC5B27E
:101EF000082DEADB70BD70B50546002486480068F1
:101F000020F44020844908600846006808600120E9
:101F100006F0CEFB002615E000208049091F08606E
:101F2000FFF7E2FE01207E49C1F8A0026006040E20
:101F30007A488038006808B1601CC4B2FFF7D4FE4C
:101F4000701CC6B2082EE7DB15B9FFF784FF01E06D
:101F5000FFF75DFF204670BD70B506460C4615467E
:101F6000FFF7E6FE5420FFF79AFFFFF724FF18B1B2
:101F7000FFF7FFFE012070BD3046FFF790FFFFF72F
:101F80001AFF2046FFF78BFFFFF715FF18B1FFF789
:101F9000F0FE0120EFE72846FFF781FFFFF70BFF78
:101FA00018B1FFF7E6FE0120E5E7FFF7E2FE0020AB
:101FB000E1E770B50546FFF7BBFE5420FFF76FFF62
:101FC000FFF7F9FE2846FFF76AFFFFF7F4FEFFF779
:101FD000AFFE5520FFF763FFFFF7EDFE0120FFF78F
:101FE0008AFF04020020FFF786FF0443FFF7C1FECB
:101FF000204670BD70B5054635B1012D0FD0022DBC
:1020000018D0032D2CD120E00020FFF7D2FFC0F321
:102010000B040120FFF7CDFF40EA044421E0022039
:10202000FFF7C7FFC0F30B040320FFF7C2FF40EA2E
:10203000044416E00420FFF7BCFFC0F30B040520A6
:10204000FFF7B7FF40EA04440BE00620FFF7B1FFBB
:10205000C0F30B040720FFF7ACFF40EA044400E0A4
:1020600000BF00BF24F07044204670BD70B5FFF77C
:1020700040FEFFF73FFE7E20FFF79BFF04467F20D8
:10208000FFF797FF0546294626A006F06AFA45F2B3
:102090004940844272D1FB2234210820FFF75CFFC3
:1020A000FB2234210920FFF757FFFB2234210A20AD
:1020B000FFF752FFFB2234210B20FFF74DFF0A22CE
:1020C00000211020FFF748FF0A2200211120FFF70E
:1020D00043FF0A2200211220FFF73EFF0A220021BF
:1020E0001320FFF739FF022220211420FFF734FFCD
:1020F000022220211520FFF72FFF02222021162087
:10210000FFF72AFF022220211720FFF725FF0022D8
:1021100078211E2010E0000000140240A4824242F8
:10212000008042424445564943455F49443A30584D
:1021300025780D0A00000000FFF70EFF002278212D
:102140001F20FFF709FF002278212020FFF704FF5E
:10215000002278212120FFF7FFFE002211461920DE
:10216000FFF7FAFE0922C2211B20FFF7F5FE01222C
:1021700014211A20FFF7F0FE02E0FFE7012070BDF6
:102180000020FCE710B52DED068B04462046FFF736
:1021900031FF0D4908600846006809F08AFB41ECF0
:1021A0001A0B53EC1A2B9FED090B51EC100B09F095
:1021B000FBF941EC190B09F0C5F908EE100A28EEFD
:1021C000080ABDEC068B10BD24000020DBF97E6AF6
:1021D000B8A8AB4101B5BDF800000090BDF8000003
:1021E000F849088008BD01B5BDF800000090BDF8B1
:1021F0000000F449891C088008BD08B5F148801C1E
:1022000000880090BDF8000008BDEE4A10804FF035
:10221000D842A2F88010704710B504462046FFF758
:10222000D9FF052006F044FAFFF7E7FF10BDE648A6
:102230000089E44908807047E249891C088070479A
:1022400030B5014601F01F04C1F34513CA0AE50287
:1022500005EB43151544A8B230BD00BF011EA0F127
:102260000102D0B2FAD1704730B504460D46D648C7
:10227000808849F24131884205D0D348808845F2B0
:102280001031884214D1D0494889FFF7A3FF2012AA
:10229000FFF7A9FFE0B2FFF7A6FFCB498889FFF758
:1022A00099FF2812FFF79FFFE8B2FFF79CFFABE012
:1022B000C548808846F6040188421DD1C24880790D
:1022C000012804D1C0480088401E001B84B2BE49CA
:1022D0004889FFF77FFF2012FFF785FFE0B2FFF785
:1022E00082FFB9498889FFF775FF2812FFF77BFF46
:1022F000E8B2FFF778FF87E0B348808841F66311C2
:10230000884247D1B0488079A8B9AF480088401EBC
:10231000001B84B2AC494889FFF75CFF0020FFF73F
:1023200062FF0020FFF75FFF2012FFF75CFFE0B2C3
:10233000FFF759FF16E0A4494889FFF74BFF201229
:10234000FFF751FFE0B2FFF74EFF9F490988491E92
:10235000C1F30F20FFF747FF9B490978491EC8B218
:10236000FFF741FF98498889FFF734FF2812FFF7EC
:102370003AFFE8B2FFF737FF93494988491EC1F396
:102380000F20FFF730FF90498978491EC8B2FFF748
:102390002AFF39E08C48808845F21051884220D1CC
:1023A00089494889FFF716FF2012FFF71CFF86496D
:1023B0004989491C88B2FFF70DFFE0B2FFF713FF10
:1023C00081498889FFF706FF2812FFF70CFF7E4935
:1023D0008989491C88B2FFF7FDFEE8B2FFF703FFC9
:1023E00012E079488079012804D177480088401E9E
:1023F000001B84B2744948892146FFF706FF7249E1
:1024000088892946FFF701FF30BD2DE9F0410546D7
:102410000E4600240027A0466B480088A84203DD32
:1024200069484088B04202DC0020BDE8F0813146B6
:102430002846FFF719FF6448808849F241318842F5
:1024400011D06148808846F6040188420BD05E486E
:10245000808845F21031884205D05B48808841F67B
:102460006311884203D12E20FFF7B4FE0DE05648D9
:10247000808845F21051884204D14FF43850FFF75C
:10248000A9FE02E02220FFF7A5FE4F48808849F20E
:102490002031884202D10220FFF7DFFEFFF7ADFEB8
:1024A00004464948808841F66311884201D120469C
:1024B000BBE70220FFF7D1FEFFF79FFE044642482C
:1024C000808849F2413188420BD03F48808845F2EC
:1024D0001031884205D03C48808845F2105188422E
:1024E0000AD10220FFF7B9FEFFF787FE8046E7B268
:1024F0004FF6FF7000EA07273348808849F22531FC
:10250000884216D03048808844F23551884210D035
:102510002D488088091F88420BD02B4880884BF2B9
:102520000551884205D0284880884CF205518842E0
:1025300001D1204679E72448808849F24131884218
:102540000BD02148808845F21031884205D01E48C2
:10255000808845F21051884207D1E012C002B912BA
:1025600040EA411040EAE8205FE72046FFF768FEB6
:102570005BE700B51448808849F24131884211D0A8
:102580001148808846F6040188420BD00E488088A6
:1025900045F21031884205D00B48808841F663111E
:1025A000884203D12920FFF715FE14E006488088F1
:1025B00045F21051884209D14FF42450FFF70AFE2A
:1025C00009E000007E00006C8800002040F27311DA
:1025D0000720FFF71AFE00BD00B5FD48808849F2CC
:1025E0004131884211D0FA48808846F60401884279
:1025F0000BD0F748808845F21031884205D0F44866
:10260000808841F66311884203D12820FFF7E2FD5C
:102610000EE0EF48808845F21051884204D14FF413
:102620002050FFF7D7FD03E000210720FFF7EDFD65
:1026300000BDF0B5054600240027E5488079012853
:102640000BD1E348808846F60401884205D0E04873
:10265000808841F66311884208D1DD488079F0B95D
:10266000DB48808841F66311884218D1082D15D2C5
:10267000DFE805F00406080A0C0E101206250DE02E
:1026800007250BE0042509E0052507E0012505E005
:10269000002503E0032501E0022500BF00BFCC4870
:1026A000808849F24131884217D0C948808846F66F
:1026B0000401884211D0C648808845F21031884212
:1026C0000BD0C348808845F21051884205D0C048DD
:1026D000808841F6631188427ED1082D1CD2DFE844
:1026E00005F00406090C0F12151800BF14E044F0A1
:1026F000800411E044F040040EE044F0C0040BE01C
:1027000044F0200408E044F0600405E044F0A00434
:1027100002E044F0E00400BF00BFAD48808845F20D
:102720001051884202D14FF4585700E03627A8488C
:10273000808845F2103188420DD0A548808845F246
:102740001051884207D0A248808841F66311884220
:1027500001D044F008049E48808846F6040188426F
:1027600001D144F0020421463846FFF74EFD984857
:10277000808841F6631188421DD004F0200068B1C2
:102780009348008892494988884214DA904806881C
:1027900040888F490880084646800CE08C480088B5
:1027A0008B494988884206DD8948068840888849DF
:1027B0000880084646808648808845F21051884245
:1027C00054D183494889FFF705FD0020FFF70BFD31
:1027D0007F494989491C00E077E088B2FFF7FAFC9D
:1027E0000020FFF700FD7A494989891C88B2FFF76C
:1027F000F1FC77490988491EC1F30F20FFF7F3FC6C
:1028000073494989C91C88B2FFF7E4FC704909780B
:10281000491EC8B2FFF7E7FC6D498889FFF7DAFC6B
:102820000020FFF7E0FC6A498989491C88B2FFF75C
:10283000D1FC0020FFF7D7FC65498989891C88B243
:10284000FFF7C8FC62494988491EC1F30F20FFF712
:10285000CAFC5F498989C91C88B2FFF7BBFC5C4987
:102860008978491EC8B2FFF7BEFC55E0584948892F
:10287000FFF7B0FC0020FFF7B6FC0020FFF7B3FC29
:1028800053490988491EC1F30F20FFF7ACFC50499A
:102890000978491EC8B2FFF7A6FC4D498889FFF7A1
:1028A00099FC0020FFF79FFC0020FFF79CFC4849A3
:1028B0004988491EC1F30F20FFF795FC44498978E8
:1028C000491EC8B2FFF78FFC26E0082D1CD2DFE8B6
:1028D00005F004070A0D0F12151844F0300413E038
:1028E00044F0100410E044F020040DE000BF0BE0C1
:1028F00044F0380408E044F0280405E044F01804EB
:1029000002E044F0080400BF00BF032744F48054F1
:1029100021463846FFF779FCF0BD30B504460D4638
:1029200029462046FFF7A0FCFFF781FC29480088D4
:102930002949088030BD70B504460D461646244826
:10294000808849F24131884205D02148808845F28B
:102950001031884214D11E494889FFF73BFC2012F0
:10296000FFF741FCE0B2FFF73EFC19498889FFF709
:1029700031FC2812FFF737FCE8B2FFF734FC93E094
:102980001348808845F21051884227D11049488960
:10299000FFF720FC2012FFF726FC0D494989491C4E
:1029A00088B2FFF717FCE0B2FFF71DFC08498889E1
:1029B000FFF710FC2812FFF716FC05498989491C0E
:1029C00088B2FFF707FCE8B2FFF70DFC6CE00000EF
:1029D00088000020280000208000006CFE488088CD
:1029E00041F66311884228D1FB48807920B9FA4822
:1029F0000088401E001B84B2F7494889FFF7EAFBB4
:102A00002012FFF7F0FBE0B2FFF7EDFB2012FFF71B
:102A1000EAFBE0B2FFF7E7FBEF498889FFF7DAFB53
:102A20002812FFF7E0FBE8B2FFF7DDFB2812FFF703
:102A3000DAFBE8B2FFF7D7FB36E0E748808846F6D6
:102A4000040188421DD1E4488079012804D1E2487C
:102A50000088401E001B84B2DF494889FFF7BAFB9B
:102A60002012FFF7C0FBE0B2FFF7BDFBDA4988890F
:102A7000FFF7B0FB2812FFF7B6FBE8B2FFF7B3FB96
:102A800012E0D5488079012804D1D3480088401E3F
:102A9000001B84B2D04948892146FFF7B6FBCE49D6
:102AA00088892946FFF7B1FBCB480089CB490880CC
:102AB0004FF0D840A0F8806070BD70B52DED048B4C
:102AC0000446BE20FFF786FB0520FFF78CFB20465F
:102AD00008F0EFFE41EC190B9FEDC10B53EC102BEE
:102AE00008F0FAFE41EC180B08F0B6FE85B2284655
:102AF000FFF779FB0120FFF776FBFF20FFF773FB61
:102B00000020FFF770FB0020FFF76DFBBDEC048B8E
:102B100070BD10B50446002C66D1AF498871F02015
:102B200008804FF4A07048800846808849F24131FF
:102B300088420BD0A848808846F60401884205D018
:102B4000A548808845F2103188421AD12C20A2492C
:102B500008812A2048812B2088810846808846F6F3
:102B60000401884205D09C48808845F21031884293
:102B700006D14FF4A070984908804FF4F070488057
:102B8000A1E09548808845F21051884210D14FF459
:102B90003050914908814FF4285048814FF42C500F
:102BA00088814FF4F07008804FF4487048808AE0C4
:102BB0008948808841F6631188420DD12C208649CE
:102BC00008812B2048812A2088814FF4F0700880EA
:102BD0004FF44870488076E022207F490881202009
:102BE0004881212088816EE001207B4988714FF463
:102BF000A0700880F02048800846808849F2413162
:102C0000884205D07448808845F21031884207D147
:102C10002C20714908812A2048812B2088813FE09F
:102C20006D48808846F60401884207D12C206A4905
:102C300008812B2048812A20888131E066488088DD
:102C400045F21051884210D14FF43050624908814A
:102C50004FF4285048814FF42C5088814FF448702D
:102C600008804FF4F07048801AE05B48808841F695
:102C7000631188420DD12C20574908812A204881B0
:102C80002B2088814FF4487008804FF4F070488002
:102C900006E0222050490881212048812020888197
:102CA0004D48808846F60401884205D04A4880880D
:102CB00045F21031884206D14FF4F0704649088041
:102CC0004FF4A07048800020FFF7B3FC10BD2DE941
:102CD000F04F86B004460D469046994604EB080036
:102CE000401E86B205EB0900401E87B23A48808834
:102CF00049F24131884215D03748808845F2103179
:102D000088420FD03448808846F60401884209D0B2
:102D100031488079012826D12F48808841F66311F7
:102D2000884220D12C494889FFF754FA2012FFF736
:102D30005AFAE0B2FFF757FA3012FFF754FAF0B23E
:102D4000FFF751FA24498889FFF744FA2812FFF760
:102D50004AFAE8B2FFF747FA3812FFF744FAF8B236
:102D6000FFF741FAC1E01C48808841F663118842B0
:102D70003DD119480088A0EB0800001B84B205EB88
:102D80000900401E1FFA80F913494889FFF722FA0B
:102D90002012FFF728FAE0B2FFF725FA04EB08014A
:102DA000491EC1F30F20FFF71EFA04EB0801491E6C
:102DB000C8B2FFF718FA08498889FFF70BFA2812FA
:102DC000FFF711FAE8B2FFF70EFA4FEA2920FFF7F2
:102DD0000AFA09F0FF0007E0880000207E00006C7E
:102DE0006666666666660440FFF7FDF97DE0FE48AC
:102DF000808845F21051884244D1FB494889FFF749
:102E0000E9F92012FFF7EFF9F7494989491C88B21F
:102E1000FFF7E0F9E0B2FFF7E6F9F3494989891CC9
:102E200088B2FFF7D7F93012FFF7DDF9EE4949898B
:102E3000C91C88B2FFF7CEF9F0B2FFF7D4F9EA491E
:102E40008889FFF7C7F92812FFF7CDF9E649898984
:102E5000491C88B2FFF7BEF9E8B2FFF7C4F9E249AE
:102E60008989891C88B2FFF7B5F93812FFF7BBF9D9
:102E7000DD498989C91C88B2FFF7ACF9F8B2FFF7C0
:102E8000B2F932E0D848807901280ED1AA46BB4673
:102E9000D5480088801B401E80B20190D24800882F
:102EA000001B401E80B2009003E0A246B34601958D
:102EB00000975020059051200490522003905320F9
:102EC000029051460598FFF7A0F959460498FFF77C
:102ED0009CF901990398FFF798F900990298FFF778
:102EE00094F929462046FFF7BFF906B0BDE8F08FF8
:102EF00070B504460026BC48058840884543BA485A
:102F0000808846F60401884216D1B74880790128A6
:102F100012D10020B44988712A2048812B20888151
:102F200000210846FFF7A0F90120AF4988712B2046
:102F300048812A20888103E000210846FFF794F9A0
:102F4000FFF775F9002602E0A8480480761CAE421F
:102F5000FAD370BD00B5A1B00020209001217A20E5
:102F600006F0A6FA0121084606F0DAFA4FF400400E
:102F70001E9001208DF87C0000208DF87E0002203C
:102F80008DF87D0001208DF87F001EA9984805F07E
:102F90000DFD4CF233701E9002208DF87C00002055
:102FA0008DF87E0003208DF87D0001208DF87F00D4
:102FB0001EA9904805F0FAFC4FF680701E90022082
:102FC0008DF87C0000208DF87E0003208DF87D00B8
:102FD00001208DF87F001EA9874805F0E7FC4FF41B
:102FE00080501E9002208DF87C0000208DF87E001D
:102FF00003208DF87D0001208DF87F001EA97F48F9
:1030000005F0D4FC4FF480501E9002208DF87C0017
:1030100000208DF87E0003208DF87D0001208DF8C2
:103020007F001EA9764805F0C1FC0C2200217148E2
:1030300005F047FD0C2201216E4805F042FD0C22EF
:1030400004216C4805F03DFD0C220521694805F07E
:1030500038FD0C220821674805F033FD0C220921B8
:10306000644805F02EFD0C220A21624805F029FD76
:103070000C220E215F4805F024FD0C220F215D4833
:1030800005F01FFD0C2207215B4805F01AFD0C22FC
:103090000821594805F015FD0C220921564805F074
:1030A00010FD0C220A21544805F00BFD0C220B21C7
:1030B000514805F006FD0C2211464F4805F001FD70
:1030C0000C220D214C4805F0FCFC0C220E214A4834
:1030D00005F0F7FC0C220F21474805F0F2FC0C220A
:1030E0001146464805F0EDFC0C221146444805F017
:1030F000E8FC0F200890002009903C200A90002056
:103100000B900C900D900E900920019000200290E1
:103110000820039000200490059006900790062058
:103120000F9000201090119010201290002013900A
:1031300015901490169017904FF48050189000201E
:1031400019904FF480401A9000201B9008A81C9002
:1031500001A81D900FA805F008FD0121062005F02B
:103160008FFD322005F0ECFA01210020FFF74DF829
:10317000322005F0E5FA0020FFF74EF81A49888062
:1031800008468088FF280ADB084680884FF6FF71D2
:10319000884204D014488088B0F5134F7ED1D320E4
:1031A000FFF718F8FFF729F80F498880FFF725F88F
:1031B0000D498880FFF721F80B49888008468088F0
:1031C0004FF6FF7101EA002007498880FFF715F8E4
:1031D000054989880843044988800846808849F25F
:1031E000413188425AD00DE0880000208000006CF8
:1031F00000040240000C0240001002400014024093
:1032000000180240BF20FEF7E5FFFEF7F6FFFE497B
:103210008880FEF7F2FFFC498880FEF7EEFFFA494E
:103220008880FEF7EAFFF8498880084680884FF6D4
:10323000FF7101EA0020F4498880FEF7DEFFF249C1
:1032400089880843F04988800846808846F604014A
:1032500088427AD0D420FEF7BDFFFEF7CEFFEA49C0
:103260008880FEF7CAFFE8498880FEF7C6FFE64976
:103270008880084680884FF6FF7101EA0020E24905
:103280008880FEF7BAFFE04989880843DE498880D4
:103290000846808845F21031884200E055E054D05D
:1032A0004FF45A40FEF796FFFEF7A7FFD6498880F5
:1032B0004FF45B40FEF78EFFFEF79FFFD2498880F8
:1032C000084680884FF6FF7101EA0020CE498880C9
:1032D0004FF45C40FEF77EFFFEF78FFFCA498988F6
:1032E0000843C949888008468088B0F5004F02D15C
:1032F00045F210508880C448808845F210518842B9
:1033000023D0A120FEF766FFFEF777FFBE49888035
:10331000FEF773FFBC498880084680884FF6FF712E
:1033200001EA0020B8498880FEF767FFB64989881E
:103330000843B54988800846808845F26171884213
:1033400003D141F66310B0498880AF48808849F2C4
:103350004131884211D0AC48808845F21031884212
:103360000BD0A948808845F21051884205D0A64864
:10337000808841F6631188421DD1A448006820F07E
:103380000F004FF02041C1F81C010846D0F81C0185
:1033900020F47060C1F81C010846D0F81C0140F010
:1033A0000300C1F81C010846D0F81C0140F400706D
:1033B000C1F81C0128E09448808846F60401884240
:1033C00005D0914880884CF2055188421CD18F4825
:1033D000006820F00F004FF02041C1F81C010846A2
:1033E000D0F81C0120F47060C1F81C010846D0F828
:1033F0001C0140F00A00C1F81C010846D0F81C016D
:1034000040F44060C1F81C017F48818880A006F02C
:10341000BBFC7D48808849F2413188427ED1CF2073
:10342000FEF7D8FE0020FEF7DEFEC120FEF7DBFE31
:103430003020FEF7D8FEED20FEF7CCFE6420FEF72C
:10344000D2FE0320FEF7CFFE1220FEF7CCFE812035
:10345000FEF7C9FEE820FEF7BDFE8520FEF7C3FE9D
:103460001020FEF7C0FE7A20FEF7BDFECB20FEF74F
:10347000B1FE3920FEF7B7FE2C20FEF7B4FE002087
:10348000FEF7B1FE3420FEF7AEFE0220FEF7ABFEE3
:10349000F720FEF79FFE2020FEF7A5FEEA20FEF7AC
:1034A00099FE0020FEF79FFE0020FEF79CFEC02044
:1034B000FEF790FE1B20FEF796FEC120FEF78AFE67
:1034C0000120FEF790FEC520FEF784FE3020FEF7B7
:1034D0008AFE3020FEF787FEC720FEF77BFEB7206E
:1034E000FEF781FE3620FEF775FE4820FEF77BFED4
:1034F0003A20FEF76FFE5520FEF775FEB120FEF76D
:1035000069FE0020FEF76FFE1A20FEF76CFEB62063
:10351000FEF760FE0A20FEF766FE00E0A5E0A220AE
:10352000FEF761FEF220FEF755FE0020FEF75BFE7F
:103530002620FEF74FFE0120FEF755FEE020FEF7A5
:1035400049FE0F20FEF74FFE2A20FEF74CFE2820F2
:10355000FEF749FE0820FEF746FE0E20FEF743FE6A
:103560000820FEF740FE5420FEF73DFEA920FEF79E
:103570003AFE4320FEF737FE0A20FEF734FE0F2006
:10358000FEF731FE0020FEF72EFE0020FEF72BFE98
:103590000020FEF728FE0020FEF725FEE120FEF7C2
:1035A00019FE0020FEF71FFE1520FEF71CFE172057
:1035B000FEF719FE0720FEF716FE1120FEF713FE98
:1035C0000620FEF710FE2B20FEF70DFE5620FEF71C
:1035D0000AFE3C20FEF707FE0520FEF704FE102041
:1035E000FEF701FE0F20FEF7FEFD3F20FEF7FBFD7C
:1035F0003F20FEF7F8FD0F20FEF7F5FD2B20FEF72C
:10360000E9FD00200CE00000880000201C0100A063
:10361000204C43442049443A25780D0A000000001C
:10362000FEF7E1FD0020FEF7DEFD0120FEF7DBFDE9
:103630003F20FEF7D8FD2A20FEF7CCFD0020FEF744
:10364000D2FD0020FEF7CFFD0020FEF7CCFDEF20DD
:10365000FEF7C9FD1120FEF7BDFD782005F070F8DA
:103660002920FEF7B7FD03F01DB9FE48808846F615
:10367000040188427ED11120FEF7ACFD142005F034
:103680005FF8D020FEF7A6FD0720FEF7ACFD422034
:10369000FEF7A9FD1D20FEF7A6FDD120FEF79AFD3D
:1036A0000020FEF7A0FD1A20FEF79DFD0920FEF781
:1036B0009AFDD220FEF78EFD0120FEF794FD222018
:1036C000FEF791FDC020FEF785FD1020FEF78BFD73
:1036D0003B20FEF788FD0020FEF785FD0220FEF767
:1036E00082FD1120FEF77FFDC520FEF773FD03204C
:1036F000FEF779FDC820FEF76DFD0020FEF773FD93
:103700002520FEF770FD2120FEF76DFD0520FEF758
:103710006AFD0020FEF767FD0A20FEF764FD6520C4
:10372000FEF761FD2520FEF75EFD7720FEF75BFDCD
:103730005020FEF758FD0F20FEF755FD0020FEF744
:1037400052FDF820FEF746FD0120FEF74CFDFE205D
:10375000FEF740FD0020FEF746FD0220FEF743FD88
:103760002020FEF737FD3620FEF734FD0820FEF757
:103770003AFD00E02AE03A20FEF72CFD5520FEF746
:1037800032FD2B20FEF726FD0020FEF72CFD002049
:10379000FEF729FD0120FEF726FD3F20FEF723FD61
:1037A0002A20FEF717FD0020FEF71DFD0020FEF782
:1037B0001AFD0120FEF717FDDF20FEF714FD78202B
:1037C00004F0BEFF2920FEF705FD4CE7A5488088E0
:1037D00045F21031884240F07C87ED20FEF7FAFC7C
:1037E0000120FEF700FDFE20FEF7FDFCEE20FEF7B7
:1037F000F1FCDE20FEF7F7FC2120FEF7F4FCF120BF
:10380000FEF7E8FC0120FEF7EEFCDF20FEF7E2FC0D
:103810001020FEF7E8FCC420FEF7DCFC8F20FEF74A
:10382000E2FCC620FEF7D6FC0020FEF7DCFCE2201E
:10383000FEF7D9FCE220FEF7D6FCE220FEF7D3FC2F
:10384000BF20FEF7C7FCAA20FEF7CDFCB020FEF794
:10385000C1FC0D20FEF7C7FC0020FEF7C4FC0D20C4
:10386000FEF7C1FC0020FEF7BEFC1120FEF7BBFCFA
:103870000020FEF7B8FC1920FEF7B5FC0020FEF78B
:10388000B2FC2120FEF7AFFC0020FEF7ACFC2D209F
:10389000FEF7A9FC0020FEF7A6FC3D20FEF7A3FCE6
:1038A0000020FEF7A0FC5D20FEF79DFC0020FEF747
:1038B0009AFC5D20FEF797FC0020FEF794FCB120F7
:1038C000FEF788FC8020FEF78EFC0020FEF78BFCC4
:1038D0008B20FEF788FC0020FEF785FC9620FEF783
:1038E00082FC0020FEF77FFCB220FEF773FC002074
:1038F000FEF779FC0020FEF776FC0220FEF773FC51
:103900000020FEF770FC0320FEF76DFC0020FEF7A0
:103910006AFCB320FEF75EFC0020FEF764FC00208A
:10392000FEF761FC0020FEF75EFC0020FEF75BFC6A
:103930000020FEF758FC0020FEF755FC0020FEF7A3
:1039400052FC0020FEF74FFC0020FEF74CFC00204C
:10395000FEF749FC0020FEF746FC0020FEF743FC82
:103960000020FEF740FC0020FEF73DFC0020FEF7A3
:103970003AFC0020FEF737FC0020FEF734FC002064
:10398000FEF731FC0020FEF72EFC0020FEF72BFC9A
:103990000020FEF728FC0020FEF725FC0020FEF7A3
:1039A00022FC0020FEF71FFCB420FEF713FC8B2046
:1039B000FEF719FC0020FEF716FC9620FEF713FC1C
:1039C0000020FEF710FCA120FEF70DFC0020FEF702
:1039D0000AFCB520FEF7FEFB0220FEF704FC0020E7
:1039E000FEF701FC0320FEF7FEFB0020FEF7FBFBC9
:1039F0000420FEF7F8FB0020FEF7F5FBB620FEF7EB
:103A0000E9FB0020FEF7EFFB0020FEF7ECFBB72000
:103A1000FEF7E0FB0020FEF7E6FB0020FEF7E3FBED
:103A20003F20FEF7E0FB0020FEF7DDFB5E20FEF707
:103A3000DAFB0020FEF7D7FB6420FEF7D4FB002062
:103A4000FEF7D1FB8C20FEF7CEFB0020FEF7CBFB70
:103A5000AC20FEF7C8FB0020FEF7C5FBDC20FEF71C
:103A6000C2FB01E0880000200020FEF7BCFB7020B4
:103A7000FEF7B9FB0020FEF7B6FB9020FEF7B3FB84
:103A80000020FEF7B0FBEB20FEF7ADFB0020FEF7B9
:103A9000AAFBDC20FEF7A7FB0020FEF7A4FBB82062
:103AA000FEF798FB0020FEF79EFB0020FEF79BFB35
:103AB0000020FEF798FB0020FEF795FB0020FEF7A4
:103AC00092FB0020FEF78FFB0020FEF78CFB00200E
:103AD000FEF789FBBA20FEF77DFB2420FEF783FB6F
:103AE0000020FEF780FB0020FEF77DFB0020FEF7A4
:103AF0007AFBC120FEF76EFB2020FEF774FB00204E
:103B0000FEF771FB5420FEF76EFB0020FEF76BFB07
:103B1000FF20FEF768FB0020FEF765FBC220FEF7E2
:103B200059FB0A20FEF75FFB0020FEF75CFB042038
:103B3000FEF759FB0020FEF756FBC320FEF74AFBB9
:103B40003C20FEF750FB0020FEF74DFB3A20FEF72D
:103B50004AFB0020FEF747FB3920FEF744FB00201C
:103B6000FEF741FB3720FEF73EFB0020FEF73BFB54
:103B70003C20FEF738FB0020FEF735FB3620FEF731
:103B800032FB0020FEF72FFB3220FEF72CFB00203B
:103B9000FEF729FB2F20FEF726FB0020FEF723FB74
:103BA0002C20FEF720FB0020FEF71DFB2920FEF74E
:103BB0001AFB0020FEF717FB2620FEF714FB00205F
:103BC000FEF711FB2420FEF70EFB0020FEF70BFB97
:103BD0002420FEF708FB0020FEF705FB2320FEF75C
:103BE00002FB0020FEF7FFFA3C20FEF7FCFA002063
:103BF000FEF7F9FA3620FEF7F6FA0020FEF7F3FAA0
:103C00003220FEF7F0FA0020FEF7EDFA2F20FEF743
:103C1000EAFA0020FEF7E7FA2C20FEF7E4FA00208B
:103C2000FEF7E1FA2920FEF7DEFA0020FEF7DBFAC4
:103C30002620FEF7D8FA0020FEF7D5FA2420FEF75A
:103C4000D2FA0020FEF7CFFA2420FEF7CCFA0020AB
:103C5000FEF7C9FA2320FEF7C6FA0020FEF7C3FAE2
:103C6000C420FEF7B7FA6220FEF7BDFA0020FEF787
:103C7000BAFA0520FEF7B7FA0020FEF7B4FA84205E
:103C8000FEF7B1FA0020FEF7AEFAF020FEF7ABFA2D
:103C90000020FEF7A8FA1820FEF7A5FA0020FEF78C
:103CA000A2FAA420FEF79FFA0020FEF79CFA182043
:103CB000FEF799FA0020FEF796FA5020FEF793FAE5
:103CC0000020FEF790FA0C20FEF78DFA0020FEF798
:103CD0008AFA1720FEF787FA0020FEF784FA95206B
:103CE000FEF781FA0020FEF77EFAF320FEF77BFA5A
:103CF0000020FEF778FAE620FEF775FA0020FEF7BE
:103D000072FAC520FEF766FA3220FEF76CFA002040
:103D1000FEF769FA4420FEF766FA0020FEF763FA20
:103D20006520FEF760FA0020FEF75DFA7620FEF7C8
:103D30005AFA0020FEF757FA8820FEF754FA0020BE
:103D4000FEF751FAC620FEF745FA2020FEF74BFA9F
:103D50000020FEF748FA1720FEF745FA0020FEF78C
:103D600042FA0120FEF73FFA0020FEF73CFAC72096
:103D7000FEF730FA0020FEF736FA0020FEF733FA9D
:103D80000020FEF730FA0020FEF72DFAC820FEF7DB
:103D900021FA0020FEF727FA0020FEF724FA00207F
:103DA000FEF721FA0020FEF71EFAC920FEF712FAEC
:103DB0000020FEF718FA0020FEF715FA0020FEF7A3
:103DC00012FA0020FEF70FFA0020FEF70CFA00208E
:103DD000FEF709FA0020FEF706FA0020FEF703FAC4
:103DE0000020FEF700FA0020FEF7FDF90020FEF7A4
:103DF000FAF90020FEF7F7F90020FEF7F4F90020A9
:103E0000FEF7F1F90020FEF7EEF90020FEF7EBF9DE
:103E1000E020FEF7DFF91620FEF7E5F90020FEF7B7
:103E2000E2F91C20FEF7DFF90020FEF7DCF9212083
:103E3000FEF7D9F90020FEF7D6F93620FEF7D3F9C0
:103E40000020FEF7D0F94620FEF7CDF90020FEF75E
:103E5000CAF95220FEF7C7F90020FEF7C4F9642022
:103E6000FEF7C1F90020FEF7BEF97A20FEF7BBF994
:103E70000020FEF7B8F98B20FEF7B5F90020FEF719
:103E8000B2F99920FEF7AFF90020FEF7ACF9A820AF
:103E9000FEF7A9F90020FEF7A6F9B920FEF7A3F96D
:103EA0000020FEF7A0F9C420FEF79DF90020FEF7E0
:103EB0009AF9CA20FEF797F90020FEF794F9D2206C
:103EC000FEF791F90020FEF78EF9D920FEF78BF965
:103ED0000020FEF788F9E020FEF785F90020FEF7C4
:103EE00082F9F320FEF77FF90020FEF77CF9E1204C
:103EF000FEF770F91620FEF776F90020FEF773F949
:103F00001C20FEF770F90020FEF76DF92220FEF765
:103F10006AF90020FEF767F93620FEF764F9002001
:103F2000FEF761F94520FEF75EF90020FEF75BF928
:103F30005220FEF758F90020FEF755F96420FEF7ED
:103F400052F90020FEF74FF97A20FEF74CF90020D5
:103F5000FEF749F98B20FEF746F90020FEF743F9FA
:103F60009920FEF740F90020FEF73DF9A820FEF762
:103F70003AF90020FEF737F9B920FEF734F90020AE
:103F8000FEF731F9C420FEF72EF90020FEF72BF9D9
:103F9000CA20FEF728F90020FEF725F9D220FEF707
:103FA00022F90020FEF71FF9D820FEF71CF90020A7
:103FB000FEF719F9E020FEF716F90020FEF713F9D5
:103FC000F320FEF710F90020FEF70DF9E220FEF7CE
:103FD00001F90520FEF707F90020FEF704F90B2090
:103FE000FEF701F90020FEF7FEF81B20FEF7FBF8B4
:103FF0000020FEF7F8F83420FEF7F5F80020FEF771
:10400000F2F84420FEF7EFF80020FEF7ECF84F201E
:10401000FEF7E9F80020FEF7E6F86120FEF7E3F886
:104020000020FEF7E0F87920FEF7DDF80020FEF72B
:10403000DAF88820FEF7D7F80020FEF7D4F89720AA
:10404000FEF7D1F80020FEF7CEF8A620FEF7CBF859
:104050000020FEF7C8F8B720FEF7C5F80020FEF7ED
:10406000C2F8C220FEF7BFF80020FEF7BCF8C72058
:10407000FEF7B9F80020FEF7B6F8D120FEF7B3F846
:104080000020FEF7B0F8D620FEF7ADF80020FEF7CE
:10409000AAF8DD20FEF7A7F80020FEF7A4F8F32029
:1040A000FEF7A1F80020FEF79EF8E320FEF792F855
:1040B0000520FEF798F80020FEF795F80A20FEF795
:1040C00092F80020FEF78FF81C20FEF78CF80020F5
:1040D000FEF789F83320FEF786F80020FEF783F814
:1040E0004420FEF780F80020FEF77DF85020FEF710
:1040F0007AF80020FEF777F86220FEF774F80020C7
:10410000FEF771F87820FEF76EF80020FEF76BF8E6
:104110008820FEF768F80020FEF765F89720FEF784
:1041200062F80020FEF75FF8A620FEF75CF800209A
:10413000FEF759F8B720FEF756F80020FEF753F8BF
:10414000C220FEF750F80020FEF74DF8C720FEF71A
:104150004AF80020FEF747F8D120FEF744F8002087
:10416000FEF741F8D520FEF73EF80020FEF73BF8B9
:10417000DD20FEF738F80020FEF735F8F320FEF7D3
:1041800032F80020FEF72FF8E420FEF723F8012094
:10419000FEF729F80020FEF726F80120FEF723F8A5
:1041A0000020FEF720F80220FEF71DF80020FEF7A1
:1041B0001AF82A20FEF717F80020FEF714F83C2022
:1041C000FEF711F80020FEF70EF84B20FEF70BF873
:1041D0000020FEF708F85D20FEF705F80020FEF746
:1041E00002F87420FDF7FFFF0020FDF7FCFF84209C
:1041F000FDF7F9FF0020FDF7F6FF9320FDF7F3FF31
:104200000020FDF7F0FFA220FDF7EDFF0020FDF7F5
:10421000EAFFB320FDF7E7FF0020FDF7E4FFBE2033
:10422000FDF7E1FF0020FDF7DEFFC420FDF7DBFF17
:104230000020FDF7D8FFCD20FDF7D5FF0020FDF7CA
:10424000D2FFD320FDF7CFFF0020FDF7CCFFDD200C
:10425000FDF7C9FF0020FDF7C6FFF320FDF7C3FF00
:104260000020FDF7C0FFE520FDF7B4FF0020FDF7BB
:10427000BAFF0020FDF7B7FF0020FDF7B4FF0020D4
:10428000FDF7B1FF0220FDF7AEFF0020FDF7ABFF09
:104290002920FDF7A8FF0020FDF7A5FF3C20FDF732
:1042A000A2FF0020FDF79FFF4B20FDF79CFF0020A1
:1042B000FDF799FF5D20FDF796FF0020FDF793FFC6
:1042C0007420FDF790FF0020FDF78DFF8420FDF79F
:1042D0008AFF0020FDF787FF9320FDF784FF002071
:1042E000FDF781FFA220FDF77EFF0020FDF77BFF99
:1042F000B320FDF778FF0020FDF775FFBE20FDF726
:1043000072FF0020FDF76FFFC420FDF76CFF002057
:10431000FDF769FFCD20FDF766FF0020FDF763FF85
:10432000D320FDF760FF0020FDF75DFFDC20FDF7E7
:104330005AFF0020FDF757FFF320FDF754FF002040
:10434000FDF751FFE620FDF745FF1120FDF74BFF7C
:104350000020FDF748FF3420FDF745FF0020FDF762
:1043600042FF5620FDF73FFF0020FDF73CFF76207F
:10437000FDF739FF0020FDF736FF7720FDF733FF0B
:104380000020FDF730FF6620FDF72DFF0020FDF730
:104390002AFF8820FDF727FF0020FDF724FF992042
:1043A000FDF721FF0020FDF71EFFBB20FDF71BFFDF
:1043B0000020FDF718FF9920FDF715FF0020FDF7FD
:1043C00012FF6620FDF70FFF0020FDF70CFF5520C0
:1043D000FDF709FF0020FDF706FF5520FDF703FF5D
:1043E0000020FDF700FF4520FDF7FDFE0020FDF752
:1043F000FAFE4320FDF7F7FE0020FDF7F4FE44200F
:10440000FDF7F1FE0020FDF7EEFEE720FDF7E2FEEE
:104410003220FDF7E8FE0020FDF7E5FE5520FDF710
:10442000E2FE0020FDF7DFFE7620FDF7DCFE002037
:10443000FDF7D9FE6620FDF7D6FE0020FDF7D3FE7E
:104440006720FDF7D0FE0020FDF7CDFE6720FDF7C9
:10445000CAFE0020FDF7C7FE8720FDF7C4FE00203E
:10446000FDF7C1FE9920FDF7BEFE0020FDF7BBFE63
:10447000BB20FDF7B8FE0020FDF7B5FE9920FDF743
:10448000B2FE0020FDF7AFFE7720FDF7ACFE002066
:10449000FDF7A9FE4420FDF7A6FE0020FDF7A3FED0
:1044A0005620FDF7A0FE0020FDF79DFE2320FDF71E
:1044B0009AFE0020FDF797FE3320FDF794FE0020C2
:1044C000FDF791FE4520FDF78EFE0020FDF78BFEE7
:1044D000E820FDF77FFE0020FDF785FE0020FDF7B8
:1044E00082FE9920FDF77FFE0020FDF77CFE8720ED
:1044F000FDF779FE0020FDF776FE8820FDF773FEBC
:104500000020FDF770FE7720FDF76DFE0020FDF71F
:104510006AFE6620FDF767FE0020FDF764FE882036
:10452000FDF761FE0020FDF75EFEAA20FDF75BFEB1
:104530000020FDF758FEBB20FDF755FE0020FDF7DB
:1045400052FE9920FDF74FFE0020FDF74CFE66203D
:10455000FDF749FE0020FDF746FE5520FDF743FE1E
:104560000020FDF740FE5520FDF73DFE0020FDF741
:104570003AFE4420FDF737FE0020FDF734FE4420CC
:10458000FDF731FE0020FDF72EFE5520FDF72BFE36
:104590000020FDF728FEE920FDF71CFEAA20FDF70C
:1045A00022FE0020FDF71FFE0020FDF71CFE00206C
:1045B000FDF719FE0020FDF70DFEAA20FDF713FE02
:1045C000CF20FDF707FE0020FDF70DFE0020FDF7D0
:1045D0000AFE0020FDF707FE0020FDF704FE002084
:1045E000FDF701FE0020FDF7FEFD0020FDF7FBFDBD
:1045F0000020FDF7F8FD0020FDF7F5FD0020FDF798
:10460000F2FD0020FDF7EFFD0020FDF7ECFD00209E
:10461000FDF7E9FD0020FDF7E6FD0020FDF7E3FDD5
:104620000020FDF7E0FD0020FDF7DDFDF020FDF7A7
:10463000D1FD0020FDF7D7FD5020FDF7D4FD00206F
:10464000FDF7D1FD0020FDF7CEFD0020FDF7CBFDED
:10465000F320FDF7BFFD0020FDF7C5FDF920FDF7B4
:10466000B9FD0620FDF7BFFD1020FDF7BCFD292098
:10467000FDF7B9FD0020FDF7B6FD3A20FDF7AAFDD4
:104680005520FDF7B0FD1120FDF7A4FD642004F0D6
:1046900057F82920FDF79EFD3520FDF79BFD0020F2
:1046A000FDF7A1FD5120FDF795FDFF20FDF79BFDD6
:1046B0005320FDF78FFD2C20FDF795FD5520FDF7CC
:1046C00089FD8220FDF78FFD2C20FDF783FD02F090
:1046D000E9B8FE48808845F2105188427ED15521C4
:1046E0004FF47040FDF791FDAA214FF20100FDF754
:1046F0008CFD52214FF20200FDF787FD08214FF299
:104700000300FDF782FD01214FF20400FDF77DFD5E
:104710000D214FF43040FDF778FD0D214BF20100E3
:10472000FDF773FD0D214BF20200FDF76EFD342104
:104730004FF43640FDF769FD34214BF20160FDF77F
:1047400064FD34214BF20260FDF75FFD0D214FF453
:104750003140FDF75AFD0D214BF20110FDF755FDDB
:104760000D214BF20210FDF750FD34214FF437407C
:10477000FDF74BFD34214BF20170FDF746FD34216E
:104780004BF20270FDF741FD00214FF43240FDF77E
:104790003CFD00214BF20120FDF737FD00214BF2DB
:1047A0000220FDF732FD24214FF43840FDF72DFDA6
:1047B00024214BF60100FDF728FD24214BF60200D1
:1047C000FDF723FD01214FF43F40FDF71EFD0F21B2
:1047D0004FF43340FDF719FD0F2100E0FEE34BF2EB
:1047E0000130FDF712FD0F214BF20230FDF70DFDF8
:1047F00034214FF43940FDF708FD34214BF6011008
:10480000FDF703FD34214BF60210FDF7FEFC0821F5
:104810004FF43540FDF7F9FC08214BF20150FDF74C
:10482000F4FC08214BF20250FDF7EFFC03214FF49A
:104830004240FDF7EAFC24214FF43A40FDF7E5FC45
:1048400024214BF60120FDF7E0FC24214BF6022049
:10485000FDF7DBFC00214FF43C40FDF7D6FC78214E
:104860004BF60140FDF7D1FC00214BF60240FDF76D
:10487000CCFC00214FF43D40FDF7C7FC78214BF6FE
:104880000150FDF7C2FC00214BF60250FDF7BDFCC4
:1048900000214FF43E40FDF7B8FC64214BF6016067
:1048A000FDF7B3FC00214FF45140FDF7AEFC33217E
:1048B0004DF20110FDF7A9FC00214DF20210FDF7A9
:1048C000A4FC34214DF20310FDF79FFC00214DF2B2
:1048D0000410FDF79AFC3A214DF20510FDF795FC06
:1048E00000214DF20610FDF790FC4A214DF2071011
:1048F000FDF78BFC00214DF20810FDF786FC5C21D2
:104900004DF20910FDF781FC00214DF20A10FDF770
:104910007CFC81214DF20B10FDF777FC00214DF25C
:104920000C10FDF772FCA6214DF20D10FDF76DFC89
:1049300000214DF20E10FDF768FCE5214DF20F103D
:10494000FDF763FC01214DF21010FDF75EFC132111
:104950004DF21110FDF759FC01214DF21210FDF737
:1049600054FC54214DF21310FDF74FFC01214DF280
:104970001410FDF74AFC82214DF21510FDF745FC9D
:1049800001214DF21610FDF740FCCA214DF217101F
:10499000FDF73BFC02214DF21810FDF736FC00211B
:1049A0004DF21910FDF731FC02214DF21A10FDF7FE
:1049B0002CFC01214DF21B10FDF727FC02214DF2CA
:1049C0001C10FDF722FC34214DF21D10FDF71DFCDB
:1049D00002214DF21E10FDF718FC67214DF21F1049
:1049E000FDF713FC02214DF22010FDF70EFC84218F
:1049F0004DF22110FDF709FC02214DF22210FDF7C6
:104A000004FCA4214DF22310FDF7FFFB02214DF21F
:104A10002410FDF7FAFBB7214DF22510FDF7F5FB49
:104A200002214DF22610FDF7F0FBCF214DF22710A9
:104A3000FDF7EBFB02214DF22810FDF7E6FBDE212E
:104A40004DF22910FDF7E1FB02214DF22A10FDF78E
:104A5000DCFBF2214DF22B10FDF7D7FB02214DF2CA
:104A60002C10FDF7D2FBFE214DF22D10FDF7CDFBF2
:104A700003214DF22E10FDF7C8FB10214DF22F102F
:104A8000FDF7C3FB03214DF23010FDF7BEFB3321D0
:104A90004DF23110FDF7B9FB03214DF23210FDF755
:104AA000B4FB6D214DF23310FDF7AFFB00214FF445
:104AB0005240FDF7AAFB33214DF20120FDF7A5FB83
:104AC00000214DF20220FDF7A0FB01E0880000204C
:104AD00034214DF20320FDF798FB00214DF2042014
:104AE000FDF793FB3A214DF20520FDF78EFB0021E7
:104AF0004DF20620FDF789FB4A214DF20720FDF714
:104B000084FB00214DF20820FDF77FFB5C214DF274
:104B10000920FDF77AFB00214DF20A20FDF775FB15
:104B200081214DF20B20FDF770FB00214DF20C208E
:104B3000FDF76BFBA6214DF20D20FDF766FB002172
:104B40004DF20E20FDF761FBE5214DF20F20FDF740
:104B50005CFB01214DF21020FDF757FB13214DF2B4
:104B60001120FDF752FB01214DF21220FDF74DFB04
:104B700054214DF21320FDF748FB01214DF2142082
:104B8000FDF743FB82214DF21520FDF73EFB01218D
:104B90004DF21620FDF739FBCA214DF21720FDF723
:104BA00034FB02214DF21820FDF72FFB00214DF2BE
:104BB0001920FDF72AFB02214DF21A20FDF725FBF3
:104BC00001214DF21B20FDF720FB02214DF21C209C
:104BD000FDF71BFB34214DF21D20FDF716FB0221D2
:104BE0004DF21E20FDF711FB67214DF21F20FDF74E
:104BF0000CFB02214DF22020FDF707FB84214DF232
:104C00002120FDF702FB02214DF22220FDF7FDFAE3
:104C1000A4214DF22320FDF7F8FA02214DF22420C1
:104C2000FDF7F3FAB7214DF22520FDF7EEFA022148
:104C30004DF22620FDF7E9FACF214DF22720FDF7AE
:104C4000E4FA02214DF22820FDF7DFFADE214DF2D1
:104C50002920FDF7DAFA02214DF22A20FDF7D5FAD4
:104C6000F2214DF22B20FDF7D0FA02214DF22C203B
:104C7000FDF7CBFAFE214DF22D20FDF7C6FA0321F8
:104C80004DF22E20FDF7C1FA10214DF22F20FDF735
:104C9000BCFA03214DF23020FDF7B7FA33214DF273
:104CA0003120FDF7B2FA03214DF23220FDF7ADFAC3
:104CB0006D214DF23320FDF7A8FA00214FF4534047
:104CC000FDF7A3FA33214DF20130FDF79EFA0021E2
:104CD0004DF20230FDF799FA34214DF20330FDF721
:104CE00094FA00214DF20430FDF78FFA3A214DF28B
:104CF0000530FDF78AFA00214DF20630FDF785FAFE
:104D00004A214DF20730FDF780FA00214DF20830BC
:104D1000FDF77BFA5C214DF20930FDF776FA0021B0
:104D20004DF20A30FDF771FA81214DF20B30FDF79B
:104D30006CFA00214DF20C30FDF767FAA6214DF216
:104D40000D30FDF762FA00214DF20E30FDF75DFAED
:104D5000E5214DF20F30FDF758FA01214DF21030E8
:104D6000FDF753FA13214DF21130FDF74EFA0121F0
:104D70004DF21230FDF749FA54214DF21330FDF790
:104D800044FA01214DF21430FDF73FFA82214DF231
:104D90001530FDF73AFA01214DF21630FDF735FADC
:104DA000CA214DF21730FDF730FA02214DF21830CA
:104DB000FDF72BFA00214DF21930FDF726FA0221FA
:104DC0004DF21A30FDF721FA01214DF21B30FDF7AB
:104DD0001CFA02214DF21C30FDF717FA34214DF276
:104DE0001D30FDF712FA02214DF21E30FDF70DFACB
:104DF00067214DF21F30FDF708FA02214DF22030F5
:104E0000FDF703FA84214DF22130FDF7FEF902216E
:104E10004DF22230FDF7F9F9A4214DF22330FDF7D0
:104E2000F4F902214DF22430FDF7EFF9B7214DF2EC
:104E30002530FDF7EAF902214DF22630FDF7E5F9BC
:104E4000CF214DF22730FDF7E0F902214DF2283055
:104E5000FDF7DBF9DE214DF22930FDF7D6F902210D
:104E60004DF22A30FDF7D1F9F2214DF22B30FDF74A
:104E7000CCF902214DF22C30FDF7C7F9FE214DF29D
:104E80002D30FDF7C2F903214DF22E30FDF7BDF9AB
:104E900010214DF22F30FDF7B8F903214DF23030DB
:104EA000FDF7B3F933214DF23130FDF7AEF90321AF
:104EB0004DF23230FDF7A9F96D214DF23330FDF797
:104EC000A4F900214FF45440FDF79FF933214DF22E
:104ED0000140FDF79AF900214DF20240FDF795F9E6
:104EE00034214DF20340FDF790F900214DF20440CA
:104EF000FDF78BF93A214DF20540FDF786F90021C7
:104F00004DF20640FDF781F94A214DF20740FDF7C9
:104F10007CF900214DF20840FDF777F95C214DF254
:104F20000940FDF772F900214DF20A40FDF76DF9D5
:104F300081214DF20B40FDF768F900214DF20C4044
:104F4000FDF763F9A6214DF20D40FDF75EF9002152
:104F50004DF20E40FDF759F9E5214DF20F40FDF7F6
:104F600054F901214DF21040FDF74FF913214DF294
:104F70001140FDF74AF901214DF21240FDF745F9C4
:104F800054214DF21340FDF740F901214DF2144038
:104F9000FDF73BF982214DF21540FDF736F901216D
:104FA0004DF21640FDF731F9CA214DF21740FDF7D9
:104FB0002CF902214DF21840FDF727F900214DF29E
:104FC0001940FDF722F902214DF21A40FDF71DF9B3
:104FD00001214DF21B40FDF718F900E004E3022126
:104FE0004DF21C40FDF711F934214DF21D40FDF743
:104FF0000CF902214DF21E40FDF707F967214DF231
:105000001F40FDF702F902214DF22040FDF7FDF8A7
:1050100084214DF22140FDF7F8F802214DF22240A3
:10502000FDF7F3F8A4214DF22340FDF7EEF802213D
:105030004DF22440FDF7E9F8B7214DF22540FDF788
:10504000E4F802214DF22640FDF7DFF8CF214DF2C2
:105050002740FDF7DAF802214DF22840FDF7D5F898
:10506000DE214DF22940FDF7D0F802214DF22A4011
:10507000FDF7CBF8F2214DF22B40FDF7C6F80221E7
:105080004DF22C40FDF7C1F8FE214DF22D40FDF709
:10509000BCF803214DF22E40FDF7B7F810214DF278
:1050A0002F40FDF7B2F803214DF23040FDF7ADF887
:1050B00033214DF23140FDF7A8F803214DF2324083
:1050C000FDF7A3F86D214DF23340FDF79EF8002166
:1050D0004FF45540FDF799F833214DF20150FDF79B
:1050E00094F800214DF20250FDF78FF834214DF273
:1050F0000350FDF78AF800214DF20450FDF785F8C2
:105100003A214DF20550FDF780F800214DF206508E
:10511000FDF77BF84A214DF20750FDF776F80021A4
:105120004DF20850FDF771F85C214DF20950FDF782
:105130006CF800214DF20A50FDF767F881214DF21D
:105140000B50FDF762F800214DF20C50FDF75DF8B1
:10515000A6214DF20D50FDF758F800214DF20E50EA
:10516000FDF753F8E5214DF20F50FDF74EF8012100
:105170004DF21050FDF749F813214DF21150FDF793
:1051800044F801214DF21250FDF73FF854214DF241
:105190001350FDF73AF801214DF21450FDF735F8A0
:1051A00082214DF21550FDF730F801214DF21650D5
:1051B000FDF72BF8CA214DF21750FDF726F8022112
:1051C0004DF21850FDF721F800214DF21950FDF76E
:1051D0001CF802214DF21A50FDF717F801214DF28B
:1051E0001B50FDF712F802214DF21C50FDF70DF88F
:1051F00034214DF21D50FDF708F802214DF21E50EA
:10520000FDF703F867214DF21F50FCF7FEFF022166
:105210004DF22050FCF7F9FF84214DF22150FCF7AC
:10522000F4FF02214DF22250FCF7EFFFA4214DF2D2
:105230002350FCF7EAFF02214DF22450FCF7E5FF72
:10524000B7214DF22550FCF7E0FF02214DF2265028
:10525000FCF7DBFFCF214DF22750FCF7D6FF0221F0
:105260004DF22850FCF7D1FFDE214DF22950FCF71A
:10527000CCFF02214DF22A50FCF7C7FFF2214DF27C
:105280002B50FCF7C2FF02214DF22C50FCF7BDFF62
:10529000FE214DF22D50FCF7B8FF03214DF22E50A8
:1052A000FCF7B3FF10214DF22F50FCF7AEFF0321A6
:1052B0004DF23050FCF7A9FF33214DF23150FCF78D
:1052C000A4FF03214DF23250FCF79FFF6D214DF2F8
:1052D0003350FCF79AFF00214FF45640FCF795FF3E
:1052E00033214DF20160FCF790FF00214DF2026086
:1052F000FCF78BFF34214DF20360FCF786FF0021A1
:105300004DF20460FCF781FF3A214DF20560FCF795
:105310007CFF00214DF20660FCF777FF4A214DF239
:105320000760FCF772FF00214DF20860FCF76DFF8B
:105330005C214DF20960FCF768FF00214DF20A6024
:10534000FCF763FF81214DF20B60FCF75EFF00214B
:105350004DF20C60FCF759FFA6214DF20D60FCF7F1
:1053600054FF00214DF20E60FCF74FFFE5214DF296
:105370000F60FCF74AFF01214DF21060FCF745FF7A
:1053800013214DF21160FCF740FF01214DF2126034
:10539000FCF73BFF54214DF21360FCF736FF01216F
:1053A0004DF21460FCF731FF82214DF21560FCF7DD
:1053B0002CFF01214DF21660FCF727FFCA214DF2A8
:1053C0001760FCF722FF02214DF21860FCF71DFF69
:1053D00000214DF21960FCF718FF02214DF21A600E
:1053E000FCF713FF01214DF21B60FCF70EFF0221B9
:1053F0004DF21C60FCF709FF34214DF21D60FCF7F3
:1054000004FF02214DF21E60FCF7FFFE67214DF202
:105410001F60FCF7FAFE02214DF22060FCF7F5FE5A
:1054200084214DF22160FCF7F0FE02214DF2226052
:10543000FCF7EBFEA4214DF22360FCF7E6FE02210F
:105440004DF22460FCF7E1FEB7214DF22560FCF738
:10545000DCFE02214DF22660FCF7D7FECF214DF293
:105460002760FCF7D2FE02214DF22860FCF7CDFE4A
:10547000DE214DF22960FCF7C8FE02214DF22A60C0
:10548000FCF7C3FEF2214DF22B60FCF7BEFE0221B9
:105490004DF22C60FCF7B9FEFE214DF22D60FCF7B9
:1054A000B4FE03214DF22E60FCF7AFFE10214DF249
:1054B0002F60FCF7AAFE03214DF23060FCF7A5FE39
:1054C00033214DF23160FCF7A0FE03214DF2326032
:1054D000FCF79BFE6D214DF23360FCF796FE5521E3
:1054E0004FF47040FCF791FEAA214FF20100FCF747
:1054F0008CFE52214FF20200FCF787FE08214FF28A
:105500000300FCF782FE00214FF20400FCF77DFE51
:10551000CC214FF43140FCF778FE00214BF2011012
:10552000FCF773FE05214FF43640FCF76EFE702148
:105530004FF43740FCF769FE70214BF20170FCF725
:1055400064FE01214FF43840FCF75FFE03214BF667
:105550000100FCF75AFE03214BF60200FCF755FE52
:1055600003214BF60300FCF750FE02214FF43C40B0
:10557000FCF74BFE00214BF60140FCF746FE0021F4
:105580004BF60240FCF741FED0214FF44940FCF7B6
:105590003CFE02214CF60110FCF737FE50214CF680
:1055A0000210FCF732FE50214CF60310FCF72DFEE2
:1055B00050214CF60410FCF728FE00214FF4545003
:1055C000FCF723FE55214FF46850FCF71EFE4FF404
:1055D0008850FCF7FFFD782003F06AF84FF4245060
:1055E000FCF7F8FD01F05EB9FE48808849F22531EC
:1055F00088427DD147F6F001E520FCF706FE4FF426
:1056000080710120FCF701FE4FF4E0610220FCF7FD
:10561000FCFD41F230010320FCF7F7FD00210420DE
:10562000FCF7F3FD40F202210820FCF7EEFD00211B
:105630000920FCF7EAFD00210A20FCF7E6FD002125
:105640000C20FCF7E2FD00210D20FCF7DEFD00211F
:105650000F20FCF7DAFD00211020FCF7D6FD072112
:105660001120FCF7D2FD00211220FCF7CEFD002115
:105670001320FCF7CAFD00210720FCF7C6FD41F20C
:1056800090611020FCF7C1FD40F227211120FCF7AA
:10569000BCFD9D211220FCF7B8FD4FF4C85113202A
:1056A000FCF7B3FD25212920FCF7AFFD0D212B20B0
:1056B000FCF7ABFD07213020FCF7A7FD40F20331DA
:1056C0003120FCF7A2FD03213220FCF79EFD40F2C1
:1056D00006213520FCF799FD08213620FCF795FDC1
:1056E00040F206413720FCF790FD4FF4417100E095
:1056F00058E03820FCF789FD07213920FCF785FDAB
:1057000040F202613C20FCF780FD08213D20FCF7BF
:105710007CFD00215020FCF778FDEF215120FCF7A3
:1057200074FD00215220FCF770FD40F23F11532020
:10573000FCF76BFD4FF427416020FCF766FD01216B
:105740006120FCF762FD00216A20FCF75EFD00216C
:105750008020FCF75AFD00218120FCF756FD002136
:105760008220FCF752FD00218320FCF74EFD002132
:105770008420FCF74AFD00218520FCF746FD10211E
:105780009020FCF742FD4FF4C0619220FCF73DFDF4
:1057900040F233110720FCF738FD22210020FCF7EE
:1057A00034FD1FE78F48808849F2283188427DD137
:1057B00041F28F01EC20FCF728FD41F23421EF206B
:1057C000FCF723FD4FF480710120FCF71EFD4FF420
:1057D000E0610220FCF719FD41F230010320FCF7E3
:1057E00014FD00210420FCF710FD40F202210820E6
:1057F000FCF70BFD00210920FCF707FD00210A2022
:10580000FCF703FD01210C20FCF7FFFC00210D201B
:10581000FCF7FBFC00210F20FCF7F7FC0021102017
:10582000FCF7F3FC07211120FCF7EFFC002112200C
:10583000FCF7EBFC00211320FCF7E7FC012107201B
:10584000FCF7E3FC322002F07BFF41F29041102094
:10585000FCF7DBFC40F227211120FCF7D6FC3220BC
:1058600002F06EFF8A211220FCF7CFFC322002F0FA
:1058700067FF4FF4D0511320FCF7C7FC0621292005
:10588000FCF7C3FC0D212B20FCF7BFFC322002F0FB
:1058900057FF00212020FCF7B8FC00212120FCF755
:1058A000B4FC322002F04CFF002100E075E0302013
:1058B000FCF7ABFC40F204613120FCF7A6FC40F29F
:1058C00005313220FCF7A1FC00213520FCF79DFCBE
:1058D00040F609413620FCF798FC4FF4017137205F
:1058E000FCF793FC40F201313820FCF78EFC40F2CB
:1058F00007713920FCF789FC00213C20FCF785FC6E
:1059000040F60A213D20FCF780FC322002F018FF0F
:1059100000215020FCF779FCEF215120FCF775FCA9
:1059200000215220FCF771FC40F23F115320FCF79C
:105930006CFC4FF427416020FCF767FC01216120DB
:10594000FCF763FC00216A20FCF75FFC002180204B
:10595000FCF75BFC00218120FCF757FC0021822032
:10596000FCF753FC00218320FCF74FFC002184202E
:10597000FCF74BFC00218520FCF747FC1021902010
:10598000FCF743FC4FF4C0619220FCF73EFC40F270
:1059900033110720FCF739FC24E61248808849F2CD
:1059A000203188427ED100210846FCF72EFC4FF4BE
:1059B00080710120FCF729FC4FF4E0610220FCF724
:1059C00024FC41F230010320FCF71FFC00210420DD
:1059D000FCF71BFC40F202210820FCF716FC00211A
:1059E000092001E088000020FCF70FFC00210A20BC
:1059F000FCF70BFC01210C20FCF707FC00210D201B
:105A0000FCF703FC00210F20FCF7FFFB322002F023
:105A100097FE40F201110720FCF7F7FB322002F05D
:105A20008FFE4FF486511020FCF7EFFB0721112069
:105A3000FCF7EBFB4FF488711220FCF7E6FB4FF408
:105A400030611320FCF7E1FB00212920FCF7DDFB8E
:105A500044F210012B20FCF7D8FB00215020FCF76A
:105A6000D4FBEF215120FCF7D0FB00215220FCF7A2
:105A7000CCFB40F23F115320FCF7C7FB4FF41C5105
:105A80006020FCF7C2FB01216120FCF7BEFB002176
:105A90006A20FCF7BAFB00218020FCF7B6FB00214E
:105AA000812000E030E0FCF7B0FB00218220FCF711
:105AB000ACFB00218320FCF7A8FB00218420FCF72D
:105AC000A4FB00218520FCF7A0FB10219020FCF70F
:105AD0009CFB00219220FCF798FB01219320FCF70E
