:020000040800F2
:10000000B80C00209DB000081F2200082122000823
:1000100025220008292200082D22000800000000E7
:100020000000000000000000000000003122000875
:1000300033220008000000003522000837220008A3
:10004000B7B00008B7B00008B7B00008B7B00008F4
:10005000B7B00008B7B00008397E0008637E00081A
:100060005B830008BD830008B7B00008B7B0000884
:10007000B7B00008B7B00008B7B00008B7B00008C4
:10008000B7B00008B7B00008B7B00008B7B00008B4
:10009000B7B00008B7B00008B7B00008B7B00008A4
:1000A000B7B00008B7B00008B7B00008B7B0000894
:1000B000B7B00008B7B00008B7B00008B7B0000884
:1000C000B7B00008B7B00008B7B00008B7B0000874
:1000D000B7B00008F91F000873200008B7B0000887
:1000E000B7B00008B7B00008B7B00008B7B0000854
:1000F000B7B00008B7B00008B7B00008B7B0000844
:10010000B7B00008B7B00008B7B00008B7B0000833
:10011000A5210008B7B00008B7B00008B7B00008C4
:10012000B7B00008B7B00008B7B00008B7B0000813
:10013000B7B00008B7B00008B7B00008B7B0000803
:10014000B7B00008B7B00008B7B00008B7B00008F3
:10015000B7B00008B7B00008B7B00008B7B00008E3
:10016000B7B00008B7B00008B7B00008B7B00008D3
:10017000B7B00008B7B00008B7B00008B7B00008C3
:10018000B7B00008B7B0000800F002F800F092F82D
:100190000AA090E8000C82448344AAF10107DA45E2
:1001A00001D100F087F8AFF2090EBAE80F0013F0A2
:1001B000010F18BFFB1A43F00103184700FB0000B2
:1001C00020FB0000103A24BF78C878C1FAD8520743
:1001D00024BF30C830C144BF04680C6070470000C1
:1001E0000023002400250026103A28BF78C1FBD840
:1001F000520728BF30C148BF0B6070476E290CF012
:10020000CD8470290CF0998266290EF0FB80652957
:100210000EF0F88067290EF0F5806129AFF30080B9
:1002200003681B0A28BF41F0800169290CF07A8419
:1002300064290CF0778475290CF074846F290CF014
:10024000B68578290CF06582E9290CF05185E429FE
:100250000CF04E85F5290CF04B85EF290CF0B38599
:10026000F8290CF064820368DB0928BF41F08001A3
:1002700063290DF06A8073290DF06F80E3290DF07A
:100280007A80F3290DF07F80002070471FB50EF0B3
:10029000AFF80DF0CDF80400002000210DF0CAFDEC
:1002A000401C6060002000210DF0AEFDE0601FBD2D
:1002B00010B510BD0DF08FF81146FFF7E7FF00F005
:1002C00009F80DF06BF903B4FFF7F2FF03BC0AF075
:1002D000B7FB00001CB54FF4A0600AF0FFFEA82099
:1002E0000AF05AFE0AF058FA4FF4E1300AF0B6FB71
:1002F0000AF036FD0AF071FD03F082FC4FF6FF7044
:1003000003F04CFC07F0FCFB0A200AF0A7FE02E019
:1003100064200AF0A3FE02F071FA0028F8D102E08E
:1003200064200AF09BFE02F0EBFC0028F8D107F0F5
:10033000F2FC01F053BE3920FE4908703820FE4916
:1003400008700AF035FD0AF042FDFC4800780128EB
:10035000EFD1FB480078082841D1FA480AF0A7FA03
:10036000F94908700846007880280AD1F7A01821BA
:100370000B465022CDE900104FF487710C2007F096
:100380008CFBF148007840280AD1F2A018210B46D6
:100390005022CDE900104FF487710C2007F07DFB4F
:1003A000E948007820280AD1ECA018210B465022F9
:1003B000CDE900104FF48771872007F06EFBE2480B
:1003C00000781028B5D1E8A018210B465022CDE9BD
:1003D00000104FF48771872007F05FFBA9E7D8482A
:1003E000007801287ED1E34807F02CFC0020E24988
:1003F0000870E04890ED000ADFEDE00A20EE200AE8
:10040000DFEDDF0AB4EEE00AF1EE10FA04DD084693
:10041000007840F080000870D64890ED010ADFEDCA
:10042000D70A20EE200ADFEDD60AB4EEE00AF1EE9C
:1004300010FA05DDD048007840F04000CE49087041
:10044000CC4890ED020ADFEDCD0A20EE200ADFED68
:10045000CC0AB4EEE00AF1EE10FA05DDC6480078E9
:1004600040F02000C4490870C24890ED030ADFED57
:10047000C30A20EE200ADFEDC20AB4EEE00AF1EE74
:1004800010FA05DDBC48007840F01000BA49087049
:10049000B84890ED040ADFEDB90A20EE200ADFED3E
:1004A000B80AB4EEE00AF1EE10FA05DDB2480078C1
:1004B00040F00800B0490870AE4890ED050ADFED45
:1004C000AF0A20EE200ADFEDAE0AB4EEE00AF1EE4C
:1004D00010FA05DDA848007840F00400A64908702D
:1004E000A44800E0ADE190ED060ADFEDA40A20EE9D
:1004F000200ADFEDA30AB4EEE00AF1EE10FA05DD02
:100500009D48007840F002009B490870994890EDA2
:10051000070ADFED9A0A20EE200ADFED990AB4EE11
:10052000E00AF1EE10FA05DD9348007840F0010092
:10053000914908709048007800F0F000702805D0CC
:100540008D48007800F0F000E0280DD15220794964
:1005500008708CA010210B468022CDE900108C2160
:100560000F2007F09AFA40E08348007800F0F0008E
:1005700060280BD08048007800F0F000C02805D03B
:100580007D48007800F0F00030280DD153206949F3
:1005900008707FA010210B468022CDE900108C212D
:1005A000142007F07AFA20E07348007800F0F00099
:1005B000F0280DD150205F49087078A010210B461B
:1005C0008022CDE900108C210F2007F066FA0CE0A4
:1005D00032205849087074A010210B464722CDE9FB
:1005E00000108C210F2007F058FA6348007800F0C3
:1005F0000F00072805D06048007800F00F000E2893
:100600000DD152204C4908705EA010210B4680226B
:10061000CDE900108C21782007F03FFA40E05648E1
:10062000007800F00F0006280BD05348007800F047
:100630000F000C2805D05048007800F00F00032868
:100640000DD153203C49087051A010210B46802247
:10065000CDE900108C21084607F01FFA20E046483B
:10066000007800F00F000F280DD15020324908709B
:100670004AA010210B468022CDE900108C21872052
:1006800007F00BFA0CE033202B49087049A0102129
:100690000B465022CDE900108C21782007F0FDF99F
:1006A00024480078522803D12348007853280FD0DB
:1006B00020480078532803D11F480078502807D0DD
:1006C0001C48007850281CD11B480078522818D1AB
:1006D0003CA018210B465022CDE900104FF4877141
:1006E0000C2007F0DAF93AA018210B465022CDE988
:1006F00000104FF48771872007F0CFF90AF04FFB05
:1007000017E60C480078522803D10B48007850288F
:100710000FD008480078532803D1074800785228A2
:1007200007D004480078502874D103480078532833
:1007300070D153E00B0000200C000020310000209D
:1007400030000020A000002009000020205249476E
:100750004854200020204C45465420002020524977
:10076000474854202000000020204C4546542020BB
:100770000000000080000020080000200000C842A7
:100780000000164320202020526F636B20200000C1
:1007900053636973736F7273000000002020205050
:1007A000617065722000000020202057616974206C
:1007B0002000000020202020205761697420202084
:1007C00020000000202057494E212020000000007A
:1007D00020204C4F5345202000000000AFF21000B5
:1007E00018210B465022CDE900104FF487710C20E0
:1007F00007F053F9AFF2340018210B465022CDE92F
:1008000000104FF48771872007F047F90AF0D6FAF5
:100810008FE5FFE7FAA018210B465022CDE9001022
:100820004FF487710C2007F038F9F7A018210B4618
:100830005022CDE900104FF48771872007F02DF981
:1008400077E5F448007802287ED1F34807F0FAF9FA
:100850000020F24908709FEDF20AF24880ED000A8C
:100860009FEDEF0AF04880ED000AEB4890ED000A9A
:100870005FED3E0A20EE200A5FED3F0AB4EEE00A8B
:10088000F1EE10FA04DD0846007840F080000870B0
:10089000E148D0ED000AE34890ED000A1FED491A47
:1008A00000EE810A80ED000ADB4890ED010A5FED61
:1008B0004D0A20EE200A5FED4E0AB4EEE00AF1EE9A
:1008C00010FA05DDD548007840F04000D3490870A3
:1008D000D148D0ED010AD34890ED000A1FED591A16
:1008E00000EE810A80ED000ACB4890ED020A5FED30
:1008F0005D0A20EE200A5FED5E0AB4EEE00AF1EE3A
:1009000010FA05DDC548007840F02000C3490870A2
:10091000C148D0ED020AC34890ED000A1FED691AE4
:1009200000EE810A80ED000ABB4890ED030A5FEDFE
:100930006D0A20EE200A5FED6E0AB4EEE00AF1EED9
:1009400010FA07DDB54800E09FE1007840F01000A4
:10095000B2490870B048D0ED030AB24890ED000AE1
:100960001FED7A1A00EE810A80ED000AAA4890ED88
:10097000040A5FED7E0A20EE200A5FED7F0AB4EEE6
:10098000E00AF1EE10FA05DDA448007840F0080016
:10099000A2490870A048D0ED040AA34890ED000ACF
:1009A0001FED8A1A00EE810A80ED000A9A4890ED48
:1009B000050A5FED8E0A20EE200A5FED8F0AB4EE85
:1009C000E00AF1EE10FA05DD9448007840F00400EA
:1009D000924908709048D0ED050A934890ED000ABE
:1009E0001FED9A1A00EE810A80ED000A8A4890ED08
:1009F000060A5FED9E0A20EE200A5FED9F0AB4EE24
:100A0000E00AF1EE10FA05DD8448007840F00200BB
:100A1000824908708048D0ED060A834890ED000AAC
:100A20001FEDAA1A00EE810A80ED000A7A4890EDC7
:100A3000070A5FEDAE0A20EE200A5FEDAF0AB4EEC2
:100A4000E00AF1EE10FA05DD7448007840F001008C
:100A5000724908707048D0ED070A734890ED000A9B
:100A60001FEDBA1A00EE810A80ED000A6D4890ED84
:100A7000000ADFED6E0AB4EEE00AF1EE10FA08DDCE
:100A8000182001230522CD210090302006F04DFFD3
:100A900067E06248007800F0F000102811D05F484D
:100AA000007800F0F00020280BD05C48007800F0BF
:100AB000F000402805D05948007800F0F000802868
:100AC00008D1182001231A46CD210090302006F0CD
:100AD0002CFF46E05148007800F0F00030280BD0A1
:100AE0004E48007800F0F000602805D04B480078B0
:100AF00000F0F000C02808D1182001230222CD21E7
:100B00000090302006F011FF2BE04448007800F000
:100B1000F000702805D04148007800F0F000E0288F
:100B200008D1182001230322CD210090302006F0A7
:100B3000FCFE16E03948007800F0F000F02808D1FB
:100B4000182001230422CD210090302006F0EDFE74
:100B500007E0182001230022CD210090302006F06C
:100B6000E4FE314890ED000ADFED300AB4EEE00A11
:100B7000F1EE10FA08DD182001230522CD210090A6
:100B8000A82006F0D2FE29E42448007800F00F00E7
:100B9000012811D02148007800F00F0002280BD066
:100BA0001E48007800F00F00042805D01B4800788C
:100BB00000F00F00082808D1182001231A46CD2183
:100BC0000090A82006F0B1FE08E41448007800F078
:100BD0000F0003280BD01148007800F00F00062802
:100BE00005D00E48007800F00F000C2820D1182006
:100BF00001230222CD210090A82006F096FE7FE579
:100C000020205449452120002020544945212020FE
:100C10000000000030000020800000200A000020BA
:100C200000000000000000200400002000C00A4571
:100C3000FC48007800F00F00072805D0F94800783C
:100C400000F00F000E2808D1182001230322CD2127
:100C50000090A82006F069FE52E5F248007800F006
:100C60000F000F2808D1182001230422CD21009065
:100C7000A82006F05AFE43E5182001230022CD21CA
:100C80000090A82006F051FE3AE5E74800780328D6
:100C90007ED1E6480078A8B9E5A010210B4698223D
:100CA000CDE900103921522006F0F7FEE5A0102111
:100CB0000B4640F22912CDE900104A21082006F027
:100CC000ECFE1DE5D9480078012815D1E5A01021DA
:100CD0000B469822CDE900103921522006F0DDFEA6
:100CE000E5A010210B4640F22912CDE900104A215F
:100CF000082006F0D2FE03E5CC480078022815D182
:100D0000E5A010210B469822CDE900103921522090
:100D100006F0C3FED8A010210B4640F22912CDE9FF
:100D200000104A21082006F0B8FEE9E4BF48007828
:100D3000032815D1DDA010210B469822CDE9001023
:100D40003921522006F0A9FECBA010210B4640F21B
:100D50002912CDE900104A21082006F09EFECFE4BA
:100D6000B2480078042817D1BEA010210B46982263
:100D7000CDE900103921522006F08FFEBEA01021CF
:100D80000B4640F22912CDE900104A21082000E06C
:100D900084E006F082FEB3E4A4480078052815D16B
:100DA000BDA010210B469822CDE900103921522018
:100DB00006F073FEB0A010210B4640F22912CDE9D7
:100DC00000104A21082006F068FE99E49748007850
:100DD000062815D1BAA010210B469822CDE90010A3
:100DE0003921522006F059FEA3A010210B4640F2F3
:100DF0002912CDE900104A21082006F04EFE7FE4BA
:100E00008A480078072815D196A010210B46982211
:100E1000CDE900103921522006F03FFE96A01021A6
:100E20000B4640F22912CDE900104A21082006F0B5
:100E300034FE65E47D480078082815D196A010217D
:100E40000B469822CDE900103921522006F025FEEC
:100E500089A010210B4640F22912CDE900104A2149
:100E6000082006F01AFE4BE470480078092892D159
:100E700098A010210B469822CDE90010392152206C
:100E800006F00BFE98A010210B4640F22912CDE986
:100E900000104A21082006F000FE31E46248007884
:100EA00004287DD1984806F0CDFE002097490870AF
:100EB000954890ED000ADFED960A20EE200ADFED5E
:100EC000950AB4EEE00AF1EE10FA04DD0846007867
:100ED00040F0800008708C4890ED010ADFED8C0A2C
:100EE00020EE200ADFED8B0AB4EEE00AF1EE10FAF4
:100EF00005DD8648007840F040008449087082484B
:100F000090ED020ADFED820A20EE200ADFED810A71
:100F1000B4EEE00AF1EE10FA05DD7C48007840F00E
:100F200020007A490870784890ED030ADFED780ACE
:100F300020EE200ADFED770AB4EEE00AF1EE10FAB7
:100F400005DD7248007840F01000704908706E4866
:100F500090ED040ADFED6E0A20EE200ADFED6D0A47
:100F6000B4EEE00AF1EE10FA05DD6848007840F0D2
:100F7000080066490870644890ED050ADFED640AD0
:100F800020EE200ADFED630AB4EEE00AF1EE10FA7B
:100F900005DD5E48007840F004005C49087000E020
:100FA00070E2594890ED060ADFED590A20EE200A5A
:100FB000DFED580AB4EEE00AF1EE10FA05DD534811
:100FC000007840F00200514908704F4890ED070A40
:100FD000DFED4F0A20EE200ADFED4E0AB4EEE00A04
:100FE000F1EE10FA05DD4948007840F0010047496C
:100FF00008704648007800F0F0004749097801F091
:10100000F00188420DD145A010210B468022CDE988
:1010100000108C210F2006F040FD5220424908703C
:10102000BEE083E00A0000203000002032000020F3
:1010300050757420796F757220526F636B2C616EDE
:1010400064000000707265737320627574746F6E53
:10105000203421202020202020202020202020207B
:10106000000000002020202020416761696E2120BF
:101070002020202020202000616E64207072657383
:101080007320627574746F6E20342120202020201C
:101090002020202000000000202020416761696E90
:1010A00021416761696E2120202000005075742065
:1010B000796F75722053636973736F722C0000002F
:1010C00050757420796F75722050617065722C2094
:1010D00020000000547261696E205375636365736C
:1010E0007366756C210000006F666620437572722E
:1010F000656E74206D6F64652C6F70656E206D6F0A
:1011000064652034000000008000002008000020FA
:101110000000C84200001643340000202020205266
:101120006F636B21202020000B000020FD48007819
:1011300000F0F000FC49097801F0F00188420DD17F
:10114000FAA010210B468022CDE900108C2114203A
:1011500006F0A3FC5320F849087021E0F14800781C
:1011600000F0F000F549097801F0F00188420DD156
:10117000F3A010210B468022CDE900108C210F2016
:1011800006F08BFC5020EC49087009E0EFA010211C
:101190000B464722CDE900108C210F2006F07DFC84
:1011A000E048007800F00F00EC49097801F00F01E9
:1011B00088420ED1AFF29C0010210B468022CDE96F
:1011C00000108C21782006F068FC5220E449087059
:1011D00039E0D448007800F00F00D349097801F0D5
:1011E0000F0188420DD1D1A010210B468022CDE9FC
:1011F00000108C21084606F050FC5320D849087096
:1012000021E0C848007800F00F00CC49097801F0CF
:101210000F0188420DD1CAA010210B468022CDE9D2
:1012200000108C21872006F038FC5020CC49087033
:1012300009E0C6A010210B465022CDE900108C21F8
:10124000872006F02AFCB748007800F0F0007028EC
:1012500005D0B448007800F0F000E0280ED152200C
:10126000B5490870AFF6E42010210B468022CDE985
:1012700000108C210F2006F010FC34E0A948007803
:1012800000F0F00060280BD0A648007800F0F000D5
:10129000C02805D0A348007800F0F00030280ED117
:1012A0005320A5490870AFF6183010210B46802254
:1012B000CDE900108C21142006F0EFFB13E09948D3
:1012C000007800F0F000F0280DD150209A49087005
:1012D000AFF6383010210B468022CDE900108C216A
:1012E0000F2006F0DAFB8F48007800F00F00072887
:1012F00005D08C48007800F00F000E280ED1522047
:1013000097490870AFF6843010210B468022CDE952
:1013100000108C21782006F0C0FB34E08148007872
:1013200000F00F0006280BD07E48007800F00F0078
:101330000C2805D07B48007800F00F0003280ED160
:10134000532087490870AFF6B83010210B46802231
:10135000CDE900108C21084606F09FFB13E0714890
:10136000007800F00F000F280DD150207C49087044
:10137000AFF6D83010210B468022CDE900108C2129
:10138000872006F08AFB6C480078522803D1744805
:10139000007853280FD068480078532803D170484C
:1013A0000078502807D06448007850281ED16C4837
:1013B000007852281AD1AFF6F43018210B4650228B
:1013C000CDE900104FF487710C2006F066FBAFF6F4
:1013D000004018210B465022CDE900104FF48771D0
:1013E000872006F05AFB09F0DAFC08E4524800783E
:1013F000522803D15A48007850280FD04E48007820
:10140000532803D156480078522807D04A4800781C
:1014100050281ED15248007853281AD1AFF65040B8
:1014200018210B465022CDE900104FF487710C2093
:1014300006F033FBAFF6744018210B465022CDE97D
:1014400000104FF48771872006F027FB09F0B6FCE7
:1014500011E4AFF6540018210B465022CDE90010DC
:101460004FF487710C2006F018FBAFF664001821CA
:101470000B465022CDE900104FF48771872006F00B
:101480000CFB1EE43748007805284AD1364800781E
:10149000A8B936A010210B469822CDE900103921B9
:1014A000522006F0FAFA36A010210B4640F229121B
:1014B000CDE900104A21082006F0EFFA1BE42A4883
:1014C0000078012817D1AFF2644010210B46982212
:1014D000CDE900103921522006F0DFFAAFF2684062
:1014E00010210B4640F22912CDE900104A210820B4
:1014F00006F0D3FA19E41C480078022857D1AFF25D
:10150000684010210B469822CDE900103921522065
:1015100006F0C3FAAFF2A04010210B4640F22912A8
:101520003EE0ABE108000020360000205363697301
:10153000736F7273210000000B0000203500002043
:10154000202020506170657221200000202020574B
:101550006169742020202020000000003400002059
:101560000C00002030000020330000205075742053
:10157000796F7572204F6E652020202000000000DA
:1015800046696E6765722C616E6420707265737354
:1015900020627574746F6E203421202000000000DA
:1015A000CDE900104A21082006F077FA0DE4FE4844
:1015B0000078032816D1FDA010210B469822CDE912
:1015C00000103921522006F068FAAFF24C001021C9
:1015D0000B4640F22912CDE900104A21082006F0FE
:1015E0005CFA0CE4F0480078042817D1AFF28C5074
:1015F00010210B469822CDE900103921522006F027
:101600004CFAAFF28C5010210B4640F22912CDE972
:1016100000104A21082006F040FA0AE4E248007867
:10162000052817D1AFF2905010210B469822CDE932
:1016300000103921522006F030FAAFF2C4501021C8
:101640000B4640F22912CDE900104A21082006F08D
:1016500024FA08E4D4480078062816D1D8A010212E
:101660000B469822CDE900103921522006F015FAD8
:10167000AFF2F40010210B4640F22912CDE9001020
:101680004A21082006F009FAA4E3C7480078072891
:1016900017D1AFF2306010210B469822CDE900102F
:1016A0003921522006F0F9F9AFF2346010210B46CF
:1016B00040F22912CDE900104A21082006F0EDF988
:1016C00088E3B9480078082817D1AFF234601021B8
:1016D0000B469822CDE900103921522006F0DDF9A1
:1016E000AFF26C6010210B4640F22912CDE90010D8
:1016F0004A21082006F0D1F96CE3AB4800780928AC
:1017000016D1B4A010210B469822CDE90010392142
:10171000522006F0C2F9AFF2981010210B4640F2A9
:101720002912CDE900104A21082006F0B6F951E34C
:101730009D4800780A2817D1AFF2D86010210B46D7
:101740009822CDE900103921522006F0A6F9AFF217
:10175000D86010210B4640F22912CDE900104A2131
:10176000082006F09AF935E38F4800780B2817D146
:10177000AFF2DC6010210B469822CDE90010392130
:10178000522006F08AF9AFF2107010210B4640F299
:101790002912CDE900104A21082006F07EF919E34C
:1017A000814800780C2816D18FA010210B46982272
:1017B000CDE900103921522006F06FF9AFF2402038
:1017C00010210B4640F22912CDE900104A210820D1
:1017D00006F063F9FEE2744800780D2817D1AFF2E5
:1017E0007C7010210B469822CDE90010392152203F
:1017F00006F053F9AFF2807010210B4640F2291227
:10180000CDE900104A21082006F047F9E6E36648D2
:1018100000780E2817D1AFF2807010210B46982265
:10182000CDE900103921522006F037F9AFF2B87037
:1018300010210B4640F22912CDE900104A21082060
:1018400006F02BF9CAE3584800780F288BD16BA01B
:1018500010210B469822CDE900103921522006F0C4
:101860001CF9AFF27C7010210B4640F22912CDE931
:1018700000104A21082006F010F9AFE36448007810
:1018800006287DD1634806F0DDF900206249087022
:101890009FED620A624880ED000A9FED600A614890
:1018A00080ED000A5B4890ED000ADFED5F0A20EE54
:1018B000200ADFED5E0AB4EEE00AF1EE10FA04DD74
:1018C0000846007840F0800008705248D0ED000AC9
:1018D000534890ED000A9FED541A00EE810A80ED06
:1018E000000A4C4890ED010ADFED4F0A20EE200A75
:1018F000DFED4E0AB4EEE00AF1EE10FA05DD4648DF
:10190000007840F04000444908704248D0ED010A98
:10191000434890ED000A9FED441A00EE810A80EDE5
:10192000000A3C4890ED020ADFED3F0A20EE200A53
:10193000DFED3E0AB4EEE00AF1EE10FA05DD3648BE
:10194000007840F02000344908703248D0ED020A97
:10195000334890ED000A9FED341A00EE810A80EDC5
:10196000000A2C4890ED030ADFED2F0A20EE200A32
:10197000DFED2E0AB4EEE00AF1EE10FA07DD00E02A
:101980009BE22548007840F0100023490870214868
:10199000D0ED030A224890ED000A9FED231A00EED5
:1019A000810A80ED000A43E0330000205075742066
:1019B000796F75722054776F20202020000000007E
:1019C00050757420796F7572205468726565202097
:1019D0000000000050757420796F757220466F7595
:1019E000722020200000000050757420796F7572FD
:1019F000204669766520202000000000547261694D
:101A00006E205375636365737366756C2000000008
:101A100030000020800000200A00002000000000AC
:101A200000000020040000200000C842000016430F
:101A3000F94890ED040A5FED040A20EE200A5FEDFC
:101A4000050AB4EEE00AF1EE10FA05DDF34800787D
:101A500040F00800F1490870EF48D0ED040AF04862
:101A600090ED000A1FED101A00EE810A80ED000AC9
:101A7000E94890ED050A5FED140A20EE200A5FEDBB
:101A8000150AB4EEE00AF1EE10FA05DDE34800783D
:101A900040F00400E1490870DF48D0ED050AE04855
:101AA00090ED000A1FED201A00EE810A80ED000A79
:101AB000D94890ED060A5FED240A20EE200A5FED7A
:101AC000250AB4EEE00AF1EE10FA05DDD3480078FD
:101AD00040F00200D1490870CF48D0ED060AD04846
:101AE00090ED000A1FED301A00EE810A80ED000A29
:101AF000C94890ED070A5FED340A20EE200A5FED39
:101B0000350AB4EEE00AF1EE10FA05DDC3480078BC
:101B100040F00100C1490870BF48D0ED070AC04835
:101B200090ED000A1FED401A00EE810A80ED000AD8
:101B3000BC4890ED000ADFEDBC0AB4EEE00AF1EE1D
:101B400010FA08DD182001230522CD210090302055
:101B500005F0EBFE53E0B148007800F0F000B34927
:101B6000097801F0F001884208D1182001231A46B3
:101B7000CD210090302005F0D8FE40E0A748007845
:101B800000F0F000AA49097801F0F001884208D17C
:101B9000182001230222CD210090302005F0C5FE3F
:101BA0002DE09E48007800F0F000A249097801F08D
:101BB000F001884208D1182001230322CD21009092
:101BC000302005F0B2FE1AE09448007800F0F000F2
:101BD0009949097801F0F001884208D118200123C1
:101BE0000422CD210090302005F09FFE07E0182050
:101BF00001230022CD210090302005F096FE884878
:101C000090ED000ADFED880AB4EEE00AF1EE10FA7A
:101C100008DD182001230522CD210090A82005F021
:101C200084FE53E07D48007800F00F007F4909787A
:101C300001F00F01884208D1182001231A46CD2156
:101C40000090A82005F071FE40E07448007800F094
:101C50000F007749097801F00F01884208D1182058
:101C600001230222CD210090A82005F05EFE2DE088
:101C70006A48007800F00F006E49097801F00F0102
:101C8000884208D1182001230322CD210090A820EA
:101C900005F04BFE1AE06148007800F00F0066493D
:101CA000097801F00F01884208D11820012304228D
:101CB000CD210090A82005F038FE07E01820012370
:101CC0000022CD210090A82005F02FFE554890ED70
:101CD000000ADFED550AB4EEE00AF1EE10FA08DD75
:101CE000182001230522CD210090302005F01DFE93
:101CF0005EE04A48007800F0F000102811D0474814
:101D0000007800F0F00020280BD04448007800F064
:101D1000F000402805D04148007800F0F00080280D
:101D200008D1182001231A46CD210090302005F05B
:101D3000FCFD3DE03948007800F0F00030280BD081
:101D40003648007800F0F000602805D0334800786D
:101D500000F0F000C02808D1182001230222CD2174
:101D60000090302005F0E1FD22E02C48007800F0E2
:101D7000F000702805D02948007800F0F000E02835
:101D800008D1182001230322CD210090302005F036
:101D9000CCFD0DE02148007800F0F000F02807D1DC
:101DA000182001230422CD210090302005F0BDFD34
:101DB0001B4890ED000ADFED1C0AB4EEE00AF1EEDC
:101DC00010FA08DD182001230522CD210090A8205B
:101DD00005F0ABFD02E11148007800F00F0001288A
:101DE00011D00E48007800F00F0002280BD00B48ED
:101DF000007800F00F00042805D00848007800F0B3
:101E00000F0008281AD1182001231A46CD2100906E
:101E1000A82005F08AFDE1E0800000200A000020F3
:101E2000040000200000002000C00A453D00002002
:101E30003E0000203F00002040000020684800785D
:101E400000F00F0003280BD06548007800F00F0069
:101E5000062805D06248007800F00F000C2808D151
:101E6000182001230222CD210090A82005F05DFD5D
:101E7000B4E05B48007800F00F00072805D0584810
:101E8000007800F00F000E2808D11820012303224B
:101E9000CD210090A82005F048FD9FE05048007833
:101EA00000F00F000F2807D1182001230422CD21B4
:101EB0000090A82005F039FD90E04A4800780728F6
:101EC0007DD1494805F0BEFE474890ED000ADFEDA0
:101ED000470A20EE200ADFED460AB4EEE00AF1EEF2
:101EE00010FA02DDAF2008F093FF3F4890ED010AA1
:101EF000DFED3E0A20EE200ADFED3D0AB4EEE00AF7
:101F0000F1EE10FA02DDAF2008F09AFF364890EDAE
:101F1000020ADFED360A20EE200ADFED350AB4EEC4
:101F2000E00AF1EE10FA02DDAF2008F0A1FF2E4822
:101F300090ED030ADFED2D0A20EE200ADFED2C0ADA
:101F4000B4EEE00AF1EE10FA02DDAF2008F0A8FFCF
:101F5000254890ED040ADFED250A20EE200ADFED8A
:101F6000250AB4EEE00AF1EE10FA02DDAF2008F027
:101F7000AFFF1D4890ED050ADFED1C0A20EE200A98
:101F8000DFED1C0AB4EEE00AF1EE10FA02DDAF203C
:101F900008F0B6FF144890ED060ADFED140A20EEB3
:101FA000200ADFED140AB4EEE00AF1EE10FA02DDC9
:101FB000AF2008F0BDFF0C4890ED070A00E00DE0EF
:101FC000DFED0A0A20EE200ADFED0A0AB4EEE00A8D
:101FD000F1EE10FA02DDAF2008F0C2FFFEF7ABB958
:101FE0000A00002030000020800000200000C842CD
:101FF000000002430000344310B540F225518E48E2
:102000000AF062FA10B38C480AF09CF9C4B28B480B
:10201000008800F40040C8B98848008800F4804077
:1020200060B10A2C03D000208449088020E0834856
:10203000008840F400408149088019E00D2C06D149
:102040007E48008840F480407C49088010E07B484E
:102050000088C0F30D007A490C5478480088401C71
:102060007649088008460088C72801DD00200880DE
:1020700010BD10B540F2255172480AF025FA00282B
:1020800067D070480AF05EF9C4B221466A480AF087
:1020900055F96D48008800F40040002859D16B487C
:1020A000008800F4804090B10A2C05D000206649D9
:1020B0000880664908804CE06348008840F400408E
:1020C00061490880084600886049088041E060480E
:1020D000008800F48040A8B1232C05D000205A4984
:1020E00008805B49088034E05748008840F400408D
:1020F0005549088008460088554908800020534902
:10210000088026E00D2C06D15048008840F480401D
:102110004E4908801DE0212C06D14D48008840F42E
:1021200080404B49088014E047480088C0F30D0008
:1021300048490C5444480088401C434908800846DC
:102140000088C72805DD00200880404908804049F4
:1021500008803D48008800F4004010B33B480088E8
:1021600000F4004060B1C8223A493B480AF0B4FB91
:10217000C82138480AF0F5FB00203349088010E0F8
:102180003348008800F4004058B1C8223149334830
:102190000AF0A2FBC8212F480AF0E3FB00202A49DD
:1021A000088010BD10B540F225512D480AF08CF979
:1021B00010B32B480AF0C6F8C4B22A48008800F4CD
:1021C0000040C8B92748008800F4804060B10A2C5C
:1021D00003D000202349088020E02248008840F4F2
:1021E00000402049088019E00D2C06D11D480088C8
:1021F00040F480401B49088010E01A480088C0F372
:102200000D0019490C5417480088401C15490880D6
:1022100008460088C72801DD0020088010BD7047EF
:1022200000BFFEE700BFFEE700BFFEE700BFFEE71E
:1022300070477047704770470010014060000020F1
:102240007002002000440040620000206600002070
:102250006800002038030020C804002090050020FA
:10226000004C004064000020000400200CB5002059
:10227000019000907648006840F48030744908600E
:1022800000BF7348006800F4003000900198401CC3
:102290000190009818B90198B0F5A04FF1D16C48A1
:1022A000006800F4003010B10120009001E000202F
:1022B00000900098012846D165484030006840F001
:1022C00080506349403108606248006840F44040F3
:1022D000604908605E48083000685D490831086060
:1022E0000846006840F4004008600846006840F472
:1022F000A05008605848091F0860081F006840F097
:102300008070091F086000BF5148006800F000702D
:102310000028F9D040F20570504908604C48083058
:10232000006820F003004A49083108600846006848
:1023300040F00200086000BF45480830006800F027
:102340000C000828F8D10CBD10B54548006840F4D1
:102350007000434908603E48006840F001003C4975
:10236000086000203A4908310860394800683D4952
:102370000840374908603C48091D0860081F00688C
:1023800020F48020091F0860002031490C310860CA
:10239000FFF76CFF4FF0006031498039086010BDD5
:1023A00070B500200022022300240221284D0835A8
:1023B0002D6805F00C0020B1042806D0082834D17F
:1023C00007E02A4D2A4E356033E02A4D284E35600D
:1023D0002FE01F4D2D1D2D68C5F380541C4D2D1D64
:1023E0002D6805F03F0154B1224DB5FBF1F5184EB3
:1023F000361D3668C6F3881605FB06F209E01B4D4C
:10240000B5FBF1F5124E361D3668C6F3881605FB8E
:1024100006F20F4D2D1D2D68C5F301456D1C6B0097
:10242000B2FBF3F5124E356003E0104D104E3560EF
:1024300000BF00BF064D08352D68C5F303150E4ECD
:10244000705D0B4D2D68C540094E356070BD0000B4
:10245000003802400070004008544007003C024031
:1024600088ED00E0FFFFF6FE103000240024F400A9
:102470001000002000127A001400002010B508207F
:1024800008F0A4FD10BD70471CB50121042009F01F
:102490009DFC3020009001208DF8040000208DF874
:1024A000060002208DF8050001208DF8070069461E
:1024B000FE4808F009FF3021FC4808F081FF1CBDF0
:1024C00010B5FA48006820F44060F84908600846F2
:1024D000006840F480600860012008F077FD01206A
:1024E000F3490860F349C1F89002FFF7C7FF0020E5
:1024F000EF490860FFF7C2FF0020EE49C1F89002E3
:1025000010BD10B5E948006820F44060E749086054
:102510000846006840F480600860012008F056FD1D
:102520000020E349091F0860E249C1F89402FFF75F
:10253000A5FF0120DE49091F0860DE49C1F89402A9
:10254000FFF79CFF10BD10B50024D848006820F4A8
:102550004060D6490860084600680860012008F01D
:1025600035FD0120D2490860FFF788FF0120D149DD
:10257000C1F89002FFF782FF07E0601C84B20A2CCA
:1025800003DDFFF7BEFF012010BDC9488038006899
:102590000028F2D1C649091F086000BFF4E710B552
:1025A0000020C349091F0860C048006820F440604B
:1025B000BE4908600846006840F480600860012059
:1025C00008F004FD0020BB49C1F89402FFF756FF54
:1025D0000120B749091F0860FFF750FF0020B549E7
:1025E000C1F8900210BD10B50020B149091F086064
:1025F000AE48006820F44060AC49086008460068B6
:1026000040F480600860012008F0E0FC0120A94946
:10261000C1F89402FFF732FF0120A549091F0860A5
:10262000FFF72CFF0020A349C1F8900210BD70B540
:1026300004469E48006820F440609C4908600846B3
:10264000006840F480600860012008F0BFFC0020B2
:102650009749091F0860002512E0E00994490860C5
:102660006006040E01209349C1F89002FFF706FFAF
:1026700000208F49091F0860FFF700FF681CC5B2E2
:10268000082DEADB70BD70B5054600248748006858
:1026900020F4406085490860084600680860012011
:1026A00008F094FC002615E000208149091F08600D
:1026B000FFF7E4FE01207F49C1F890026006040E96
:1026C0007B488038006808B1601CC4B2FFF7D6FEB2
:1026D000701CC6B2082EE7DB15B9FFF784FF01E0D6
:1026E000FFF75DFF204670BD70B506460C461546E7
:1026F000FFF7E6FE5420FFF79AFFFFF724FF18B11B
:10270000FFF7FFFE012070BD3046FFF790FFFFF797
:102710001AFF2046FFF78BFFFFF715FF18B1FFF7F1
:10272000F0FE0120EFE72846FFF781FFFFF70BFFE0
:1027300018B1FFF7E6FE0120E5E7FFF7E2FE002013
:10274000E1E770B50546FFF7BBFE5420FFF76FFFCA
:10275000FFF7F9FE2846FFF76AFFFFF7F4FEFFF7E1
:10276000AFFE5520FFF763FFFFF7EDFE0120FFF7F7
:102770008AFF04020020FFF786FF0443FFF7C1FE33
:10278000204670BD70B5054635B1012D0FD0022D24
:1027900018D0032D2CD120E00020FFF7D2FFC0F38A
:1027A0000B040120FFF7CDFF40EA044421E00220A2
:1027B000FFF7C7FFC0F30B040320FFF7C2FF40EA97
:1027C000044416E00420FFF7BCFFC0F30B0405200F
:1027D000FFF7B7FF40EA04440BE00620FFF7B1FF24
:1027E000C0F30B040720FFF7ACFF40EA044400E00D
:1027F00000BF00BF24F07044204670BD7CB5FFF7D9
:1028000042FEFFF741FE7E20FFF79BFF04467F203C
:10281000FFF797FF0546294627A008F018FA45F26A
:10282000494084427DD129A010210B460A46CDE9BA
:1028300000100A210C2005F030F9FB223421082079
:10284000FFF752FFFB2234210920FFF74DFFFB2247
:1028500034210A20FFF748FFFB2234210B20FFF729
:1028600043FF0A2200211020FFF73EFF0A22002129
:102870001120FFF739FF0A2200211220FFF734FF51
:102880000A2200211320FFF72FFF0222202114200B
:10289000FFF72AFF022220211520FFF725FF022241
:1028A00020211620FFF720FF022211E0000802403D
:1028B00094024142000041424445564943455F4924
:1028C000443A305825780D0A000000006F6B000074
:1028D00020211720FFF708FF002278211E20FFF794
:1028E00003FF002278211F20FFF7FEFE002278213F
:1028F0002020FFF7F9FE002278212120FFF7F4FEC7
:10290000002211461920FFF7EFFE0922C2211B20E9
:10291000FFF7EAFE012214211A20FFF7E5FE02E08C
:10292000FFE701207CBD0020FCE710B52DED068BF4
:1029300004462046FFF726FF0D4908600846006858
:102940000BF045FC41EC1A0B53EC1A2B9FED090BD5
:1029500051EC100B0BF0B6FA41EC190B0BF080FAAE
:1029600008EE100A28EE080ABDEC068B10BD000028
:1029700024000020DBF97E6AB8A8AB4110B508201E
:1029800008F024FB10BD70471CB50121202009F080
:102990001DFA4FF44070009001208DF804000020D3
:1029A0008DF8060002208DF8050001208DF8070043
:1029B0006946FE4808F088FC4FF44071FB4808F077
:1029C000FFFC1CBD10B5F948006820F44020F74911
:1029D00008600846006840F480200860012008F084
:1029E000F5FA0120F2490860F249C1F8A002FFF7A8
:1029F000C5FF0020EE490860FFF7C0FF0020ED4949
:102A0000C1F8A00210BD10B5E848006820F44020CD
:102A1000E64908600846006840F48020086001200C
:102A200008F0D4FA0020E249091F0860E149C1F822
:102A3000A402FFF7A3FF0120DD49091F0860DD495B
:102A4000C1F8A402FFF79AFF10BD10B50024D748C3
:102A5000006820F44020D5490860084600680860F6
:102A6000012008F0B3FA0120D1490860FFF786FF82
:102A70000120D049C1F8A002FFF780FF07E0601CE9
:102A800084B20A2C03DDFFF7BEFF012010BDC84849
:102A9000803800680028F2D1C549091F086000BFCE
:102AA000F4E710B50020C249091F0860BF4800685C
:102AB00020F44020BD4908600846006840F48020AA
:102AC0000860012008F082FA0020BA49C1F8A40287
:102AD000FFF754FF0120B649091F0860FFF74EFFBA
:102AE0000020B449C1F8A00210BD10B50020B049C3
:102AF000091F0860AD48006820F44020AB49086019
:102B00000846006840F480200860012008F05EFA62
:102B10000120A849C1F8A402FFF730FF0120A44911
:102B2000091F0860FFF72AFF0020A249C1F8A00290
:102B300010BD70B504469D48006820F440209B49B4
:102B400008600846006840F480200860012008F012
:102B50003DFA00209649091F0860002512E0E009AF
:102B6000934908606006040E01209249C1F8A00252
:102B7000FFF704FF00208E49091F0860FFF7FEFEE3
:102B8000681CC5B2082DEADB70BD70B5054600248F
:102B90008648006820F440208449086008460068A0
:102BA0000860012008F012FA002615E00020804994
:102BB000091F0860FFF7E2FE01207E49C1F8A0026C
:102BC0006006040E7A488038006808B1601CC4B200
:102BD000FFF7D4FE701CC6B2082EE7DB15B9FFF76D
:102BE00084FF01E0FFF75DFF204670BD70B506462B
:102BF0000C461546FFF7E6FE5420FFF79AFFFFF755
:102C000024FF18B1FFF7FFFE012070BD3046FFF72B
:102C100090FFFFF71AFF2046FFF78BFFFFF715FF26
:102C200018B1FFF7F0FE0120EFE72846FFF781FF1C
:102C3000FFF70BFF18B1FFF7E6FE0120E5E7FFF70E
:102C4000E2FE0020E1E770B50546FFF7BBFE542029
:102C5000FFF76FFFFFF7F9FE2846FFF76AFFFFF760
:102C6000F4FEFFF7AFFE5520FFF763FFFFF7EDFE21
:102C70000120FFF78AFF04020020FFF786FF0443CC
:102C8000FFF7C1FE204670BD70B5054635B1012D78
:102C90000FD0022D18D0032D2CD120E00020FFF7FB
:102CA000D2FFC0F30B040120FFF7CDFF40EA04443C
:102CB00021E00220FFF7C7FFC0F30B040320FFF75A
:102CC000C2FF40EA044416E00420FFF7BCFFC0F353
:102CD0000B040520FFF7B7FF40EA04440BE0062091
:102CE000FFF7B1FFC0F30B040720FFF7ACFF40EA8A
:102CF000044400E000BF00BF24F07044204670BDD3
:102D00007CB5FFF740FEFFF73FFE7E20FFF79BFFFD
:102D100004467F20FFF797FF0546294626A007F0C7
:102D200096FF45F2494084427ED128A010210B46EF
:102D30000A46CDE900100A21D72004F0AEFEFB229E
:102D400034210820FFF752FFFB2234210920FFF72E
:102D50004DFFFB2234210A20FFF748FFFB223421DC
:102D60000B20FFF743FF0A2200211020FFF73EFF50
:102D70000A2200211120FFF739FF0A220021122028
:102D8000FFF734FF0A2200211320FFF72FFF022252
:102D900020211420FFF72AFF022220211520FFF70F
:102DA00025FF02222021162012E00000001402401C
:102DB000A4824242008042424445564943455F490D
:102DC00044323A305825780D0A0000006F6B00003D
:102DD000FFF70CFF022220211720FFF707FF002238
:102DE00078211E20FFF702FF002278211F20FFF725
:102DF000FDFE002278212020FFF7F8FE0022782136
:102E00002120FFF7F3FE002211461920FFF7EEFE06
:102E10000922C2211B20FFF7E9FE012214211A20FA
:102E2000FFF7E4FE02E0FFE701207CBD0020FCE7A5
:102E300010B52DED068B04462046FFF725FF0D4902
:102E40000860084600680BF0C2F941EC1A0B53EC1D
:102E50001A2B9FED090B51EC100B0BF033F841ECE2
:102E6000190B0AF0FDFF08EE100A28EE080ABDEC67
:102E7000068B10BD28000020DBF97E6AB8A8AB41A4
:102E800001B5BDF800000090BDF80000F8490880C9
:102E900008BD01B5BDF800000090BDF80000F44980
:102EA000891C088008BD08B5F148801C0088009086
:102EB000BDF8000008BDEE4A10804FF0D842A2F8DD
:102EC0008010704710B504462046FFF7D9FF052053
:102ED00008F07CF8FFF7E7FF10BDE6480089E449F9
:102EE00008807047E249891C0880704730B5014668
:102EF00001F01F04C1F34513CA0AE50205EB4315AF
:102F00001544A8B230BD00BF011EA0F10102D0B22D
:102F1000FAD1704730B504460D46D648808849F24C
:102F20004131884205D0D348808845F2103188422B
:102F300014D1D0494889FFF7A3FF2012FFF7A9FF5A
:102F4000E0B2FFF7A6FFCB498889FFF799FF281267
:102F5000FFF79FFFE8B2FFF79CFFABE0C548808812
:102F600046F6040188421DD1C2488079012804D167
:102F7000C0480088401E001B84B2BE494889FFF744
:102F80007FFF2012FFF785FFE0B2FFF782FFB9490C
:102F90008889FFF775FF2812FFF77BFFE8B2FFF77C
:102FA00078FF87E0B348808841F66311884247D1B3
:102FB000B0488079A8B9AF480088401E001B84B291
:102FC000AC494889FFF75CFF0020FFF762FF002053
:102FD000FFF75FFF2012FFF75CFFE0B2FFF759FF3A
:102FE00016E0A4494889FFF74BFF2012FFF751FF75
:102FF000E0B2FFF74EFF9F490988491EC1F30F2039
:10300000FFF747FF9B490978491EC8B2FFF741FF08
:1030100098498889FFF734FF2812FFF73AFFE8B292
:10302000FFF737FF93494988491EC1F30F20FFF787
:1030300030FF90498978491EC8B2FFF72AFF39E06E
:103040008C48808845F21051884220D189494889AE
:10305000FFF716FF2012FFF71CFF86494989491C1C
:1030600088B2FFF70DFFE0B2FFF713FF81498889AF
:10307000FFF706FF2812FFF70CFF7E498989491CDC
:1030800088B2FFF7FDFEE8B2FFF703FF12E07948D0
:103090008079012804D177480088401E001B84B243
:1030A000744948892146FFF706FF724988892946F5
:1030B000FFF701FF30BD2DE9F04105460E46002423
:1030C0000027A0466B480088A84203DD6948408875
:1030D000B04202DC0020BDE8F08131462846FFF70F
:1030E00019FF6448808849F24131884211D0614813
:1030F000808846F6040188420BD05E48808845F2FD
:103100001031884205D05B48808841F663118842BF
:1031100003D12E20FFF7B4FE0DE05648808845F21B
:103120001051884204D14FF43850FFF7A9FE02E055
:103130002220FFF7A5FE4F48808849F220318842BF
:1031400002D10220FFF7DFFEFFF7ADFE044649483B
:10315000808841F66311884201D12046BBE70220F6
:10316000FFF7D1FEFFF79FFE04464248808849F2F0
:10317000413188420BD03F48808845F21031884267
:1031800005D03C48808845F2105188420AD102207F
:10319000FFF7B9FEFFF787FE8046E7B24FF6FF70F4
:1031A00000EA07273348808849F22531884216D043
:1031B0003048808844F23551884210D02D488088AC
:1031C000091F88420BD02B4880884BF2055188425A
:1031D00005D0284880884CF20551884201D120460C
:1031E00079E72448808849F2413188420BD0214850
:1031F000808845F21031884205D01E48808845F20B
:103200001051884207D1E012C002B91240EA4110C1
:1032100040EAE8205FE72046FFF768FE5BE700B57D
:103220001448808849F24131884211D01148808881
:1032300046F6040188420BD00E48808845F21031D2
:10324000884205D00B48808841F66311884203D13B
:103250002920FFF715FE14E00648808845F210513A
:10326000884209D14FF42450FFF70AFE09E000001C
:103270007E00006CC000002040F273110720FFF7B1
:103280001AFE00BD00B5FD48808849F241318842F0
:1032900011D0FA48808846F6040188420BD0F748DE
:1032A000808845F21031884205D0F448808841F684
:1032B0006311884203D12820FFF7E2FD0EE0EF48BA
:1032C000808845F21051884204D14FF42050FFF716
:1032D000D7FD03E000210720FFF7EDFD00BDF0B5AD
:1032E000054600240027E548807901280BD1E348F2
:1032F000808846F60401884205D0E048808841F67F
:103300006311884208D1DD488079F0B9DB488088B4
:1033100041F66311884218D1082D15D2DFE805F077
:103320000406080A0C0E101206250DE007250BE016
:10333000042509E0052507E0012505E0002503E057
:10334000032501E0022500BF00BFCC48808849F278
:103350004131884217D0C948808846F60401884226
:1033600011D0C648808845F2103188420BD0C3483E
:10337000808845F21051884205D0C048808841F6C7
:10338000631188427ED1082D1CD2DFE805F00406C7
:10339000090C0F12151800BF14E044F0800411E06E
:1033A00044F040040EE044F0C0040BE044F020047C
:1033B00008E044F0600405E044F0A00402E044F0BA
:1033C000E00400BF00BFAD48808845F2105188423C
:1033D00002D14FF4585700E03627A848808845F2BC
:1033E000103188420DD0A548808845F2105188429E
:1033F00007D0A248808841F66311884201D044F08A
:1034000008049E48808846F60401884201D144F0B1
:10341000020421463846FFF74EFD9848808841F661
:10342000631188421DD004F0200068B193480088E1
:1034300092494988884214DA9048068840888F4922
:103440000880084646800CE08C4800888B494988F3
:10345000884206DD894806884088884908800846F1
:1034600046808648808845F21051884254D183496D
:103470004889FFF705FD0020FFF70BFD7F494989CB
:10348000491C00E077E088B2FFF7FAFC0020FFF764
:1034900000FD7A494989891C88B2FFF7F1FC774918
:1034A0000988491EC1F30F20FFF7F3FC73494989CE
:1034B000C91C88B2FFF7E4FC70490978491EC8B2FC
:1034C000FFF7E7FC6D498889FFF7DAFC0020FFF77A
:1034D000E0FC6A498989491C88B2FFF7D1FC0020C9
:1034E000FFF7D7FC65498989891C88B2FFF7C8FCBA
:1034F00062494988491EC1F30F20FFF7CAFC5F49A2
:103500008989C91C88B2FFF7BBFC5C498978491ED0
:10351000C8B2FFF7BEFC55E058494889FFF7B0FC38
:103520000020FFF7B6FC0020FFF7B3FC53490988E1
:10353000491EC1F30F20FFF7ACFC50490978491E22
:10354000C8B2FFF7A6FC4D498889FFF799FC002017
:10355000FFF79FFC0020FFF79CFC48494988491E63
:10356000C1F30F20FFF795FC44498978491EC8B282
:10357000FFF78FFC26E0082D1CD2DFE805F00407DA
:103580000A0D0F12151844F0300413E044F0100433
:1035900010E044F020040DE000BF0BE044F03804DC
:1035A00008E044F0280405E044F0180402E044F088
:1035B000080400BF00BF032744F480542146384666
:1035C000FFF779FCF0BD30B504460D46294620468C
:1035D000FFF7A0FCFFF781FC2948008829490880F3
:1035E00030BD70B504460D4616462448808849F221
:1035F0004131884205D02148808845F21031884207
:1036000014D11E494889FFF73BFC2012FFF741FC0B
:10361000E0B2FFF73EFC19498889FFF731FC281218
:10362000FFF737FCE8B2FFF734FC93E013488088DB
:1036300045F21051884227D110494889FFF720FCF4
:103640002012FFF726FC0D494989491C88B2FFF773
:1036500017FCE0B2FFF71DFC08498889FFF710FC52
:103660002812FFF716FC05498989491C88B2FFF723
:1036700007FCE8B2FFF70DFC6CE00000C000002082
:103680002C0000208000006CFE48808841F6631109
:10369000884228D1FB48807920B9FA480088401E2A
:1036A000001B84B2F7494889FFF7EAFB2012FFF7B5
:1036B000F0FBE0B2FFF7EDFB2012FFF7EAFBE0B210
:1036C000FFF7E7FBEF498889FFF7DAFB2812FFF7DE
:1036D000E0FBE8B2FFF7DDFB2812FFF7DAFBE8B208
:1036E000FFF7D7FB36E0E748808846F604018842BA
:1036F0001DD1E4488079012804D1E2480088401EA9
:10370000001B84B2DF494889FFF7BAFB2012FFF79C
:10371000C0FBE0B2FFF7BDFBDA498889FFF7B0FBD9
:103720002812FFF7B6FBE8B2FFF7B3FB12E0D5486B
:103730008079012804D1D3480088401E001B84B240
:10374000D04948892146FFF7B6FBCE4988892946EA
:10375000FFF7B1FBCB480089CB4908804FF0D84038
:10376000A0F8806070BD70B52DED048B0446BE20BE
:10377000FFF786FB0520FFF78CFB20460AF027FDAC
:1037800041EC190B9FEDC10B53EC102B0AF032FDED
:1037900041EC180B0AF0EEFC85B22846FFF779FBE6
:1037A0000120FFF776FBFF20FFF773FB0020FFF7F8
:1037B00070FB0020FFF76DFBBDEC048B70BD10B5F6
:1037C0000446002C66D1AF498871F02008804FF480
:1037D000A07048800846808849F2413188420BD069
:1037E000A848808846F60401884205D0A54880880C
:1037F00045F2103188421AD12C20A24908812A2092
:1038000048812B2088810846808846F6040188423A
:1038100005D09C48808845F21031884206D14FF48B
:10382000A070984908804FF4F0704880A1E0954856
:10383000808845F21051884210D14FF430509149A0
:1038400008814FF4285048814FF42C5088814FF460
:10385000F07008804FF4487048808AE0894880887A
:1038600041F6631188420DD12C20864908812B2016
:1038700048812A2088814FF4F07008804FF4487006
:10388000488076E022207F4908812020488121203D
:1038900088816EE001207B4988714FF4A070088018
:1038A000F02048800846808849F24131884205D09E
:1038B0007448808845F21031884207D12C20714924
:1038C00008812A2048812B2088813FE06D4880882C
:1038D00046F60401884207D12C206A4908812B2032
:1038E00048812A20888131E06648808845F210515D
:1038F000884210D14FF43050624908814FF428506B
:1039000048814FF42C5088814FF4487008804FF460
:10391000F07048801AE05B48808841F66311884265
:103920000DD12C20574908812A2048812B208881DD
:103930004FF4487008804FF4F070488006E0222071
:103940005049088121204881202088814D48808865
:1039500046F60401884205D04A48808845F2103175
:10396000884206D14FF4F070464908804FF4A070A9
:1039700048800020FFF7B3FC10BD2DE9F04F86B062
:1039800004460D469046994604EB0800401E86B258
:1039900005EB0900401E87B23A48808849F2413160
:1039A000884215D03748808845F2103188420FD0C0
:1039B0003448808846F60401884209D0314880792D
:1039C000012826D12F48808841F66311884220D1F2
:1039D0002C494889FFF754FA2012FFF75AFAE0B24F
:1039E000FFF757FA3012FFF754FAF0B2FFF751FA27
:1039F00024498889FFF744FA2812FFF74AFAE8B207
:103A0000FFF747FA3812FFF744FAF8B2FFF741FA26
:103A1000C1E01C48808841F6631188423DD11948B5
:103A20000088A0EB0800001B84B205EB0900401ED3
:103A30001FFA80F913494889FFF722FA2012FFF78D
:103A400028FAE0B2FFF725FA04EB0801491EC1F39A
:103A50000F20FFF71EFA04EB0801491EC8B2FFF75A
:103A600018FA08498889FFF70BFA2812FFF711FAAC
:103A7000E8B2FFF70EFA4FEA2920FFF70AFA09F039
:103A8000FF0007E0C00000207E00006C66666666EE
:103A900066660440FFF7FDF97DE0FE48808845F248
:103AA0001051884244D1FB494889FFF7E9F92012B7
:103AB000FFF7EFF9F7494989491C88B2FFF7E0F9A8
:103AC000E0B2FFF7E6F9F3494989891C88B2FFF7AC
:103AD000D7F93012FFF7DDF9EE494989C91C88B2E0
:103AE000FFF7CEF9F0B2FFF7D4F9EA498889FFF77A
:103AF000C7F92812FFF7CDF9E6498989491C88B230
:103B0000FFF7BEF9E8B2FFF7C4F9E2498989891CD9
:103B100088B2FFF7B5F93812FFF7BBF9DD4989899B
:103B2000C91C88B2FFF7ACF9F8B2FFF7B2F932E07E
:103B3000D848807901280ED1AA46BB46D5480088CE
:103B4000801B401E80B20190D2480088001B401E9E
:103B500080B2009003E0A246B34601950097502042
:103B6000059051200490522003905320029051461A
:103B70000598FFF7A0F959460498FFF79CF90199B9
:103B80000398FFF798F900990298FFF794F92946EE
:103B90002046FFF7BFF906B0BDE8F08F70B50446C8
:103BA0000026BC48058840884543BA48808846F6C8
:103BB0000401884216D1B7488079012812D100202B
:103BC000B44988712A2048812B2088810021084629
:103BD000FFF7A0F90120AF4988712B2048812A20E6
:103BE000888103E000210846FFF794F9FFF775F993
:103BF000002602E0A8480480761CAE42FAD370BDCD
:103C000000B5A1B00020209001217A2008F0DEF854
:103C10000121084608F012F94FF400401E900120DF
:103C20008DF87C0000208DF87E0002208DF87D004C
:103C300001208DF87F001EA9984807F045FB4CF243
:103C400033701E9002208DF87C0000208DF87E00DD
:103C500003208DF87D0001208DF87F001EA990487B
:103C600007F032FB4FF680701E9002208DF87C002A
:103C700000208DF87E0003208DF87D0001208DF856
:103C80007F001EA9874807F01FFB4FF480501E904D
:103C900002208DF87C0000208DF87E0003208DF836
:103CA0007D0001208DF87F001EA97F4807F00CFBE6
:103CB0004FF480501E9002208DF87C0000208DF87B
:103CC0007E0003208DF87D0001208DF87F001EA965
:103CD000764807F0F9FA0C220021714807F07FFBC3
:103CE0000C2201216E4807F07AFB0C2204216C485B
:103CF00007F075FB0C220521694807F070FB0C22C8
:103D00000821674807F06BFB0C220921644807F083
:103D100066FB0C220A21624807F061FB0C220E218F
:103D20005F4807F05CFB0C220F215D4807F057FB52
:103D30000C2207215B4807F052FB0C22082159484E
:103D400007F04DFB0C220921564807F048FB0C22D6
:103D50000A21544807F043FB0C220B21514807F07D
:103D60003EFB0C2211464F4807F039FB0C220D2177
:103D70004C4807F034FB0C220E214A4807F02FFB79
:103D80000C220F21474807F02AFB0C221146464817
:103D900007F025FB0C221146444807F020FB0F20BA
:103DA0000890002009903C200A9000200B900C9075
:103DB0000D900E90092001900020029008200390A1
:103DC0000020049005900690079006200F90002098
:103DD00010901190102012900020139015901490C4
:103DE000169017904FF480501890002019904FF4BF
:103DF00080401A9000201B9008A81C9001A81D90DC
:103E00000FA807F040FB0121062007F0C7FB322076
:103E100007F024F901210020FFF74DF8322007F0C8
:103E20001DF90020FFF74EF81A498880084680885F
:103E3000FF280ADB084680884FF6FF71884204D0CD
:103E400014488088B0F5134F7ED1D320FFF718F8BF
:103E5000FFF729F80F498880FFF725F80D4988807A
:103E6000FFF721F80B498880084680884FF6FF71DC
:103E700001EA002007498880FFF715F8054989887D
:103E80000843044988800846808849F241318842C5
:103E90005AD00DE0C00000208000006C00040240F9
:103EA000000C0240001002400014024000180240C2
:103EB000BF20FEF7E5FFFEF7F6FFFE498880FEF71C
:103EC000F2FFFC498880FEF7EEFFFA498880FEF792
:103ED000EAFFF8498880084680884FF6FF7101EABA
:103EE0000020F4498880FEF7DEFFF2498988084304
:103EF000F04988800846808846F6040188427AD0D6
:103F0000D420FEF7BDFFFEF7CEFFEA498880FEF71A
:103F1000CAFFE8498880FEF7C6FFE6498880084660
:103F200080884FF6FF7101EA0020E2498880FEF7A1
:103F3000BAFFE04989880843DE49888008468088BE
:103F400045F21031884200E055E054D04FF45A4019
:103F5000FEF796FFFEF7A7FFD64988804FF45B4037
:103F6000FEF78EFFFEF79FFFD249888008468088C3
:103F70004FF6FF7101EA0020CE4988804FF45C4083
:103F8000FEF77EFFFEF78FFFCA4989880843C949BB
:103F9000888008468088B0F5004F02D145F2105065
:103FA0008880C448808845F21051884223D0A120DF
:103FB000FEF766FFFEF777FFBE498880FEF773FFC6
:103FC000BC498880084680884FF6FF7101EA0020CE
:103FD000B8498880FEF767FFB64989880843B54924
:103FE00088800846808845F26171884203D141F695
:103FF0006310B0498880AF48808849F241318842D7
:1040000011D0AC48808845F2103188420BD0A948C5
:10401000808845F21051884205D0A648808841F634
:10402000631188421DD1A448006820F00F004FF0B2
:104030002041C1F81C010846D0F81C0120F4706032
:10404000C1F81C010846D0F81C0140F00300C1F87B
:104050001C010846D0F81C0140F40070C1F81C0196
:1040600028E09448808846F60401884205D09148AB
:1040700080884CF2055188421CD18F48006820F09E
:104080000F004FF02041C1F81C010846D0F81C0178
:1040900020F47060C1F81C010846D0F81C0140F003
:1040A0000A00C1F81C010846D0F81C0140F4406029
:1040B000C1F81C017F48818880A008F0F3FA7D4890
:1040C000808849F2413188427ED1CF20FEF7D8FE68
:1040D0000020FEF7DEFEC120FEF7DBFE3020FEF7FB
:1040E000D8FEED20FEF7CCFE6420FEF7D2FE0320C2
:1040F000FEF7CFFE1220FEF7CCFE8120FEF7C9FEB0
:10410000E820FEF7BDFE8520FEF7C3FE1020FEF777
:10411000C0FE7A20FEF7BDFECB20FEF7B1FE3920AF
:10412000FEF7B7FE2C20FEF7B4FE0020FEF7B1FE2E
:104130003420FEF7AEFE0220FEF7ABFEF720FEF7BE
:104140009FFE2020FEF7A5FEEA20FEF799FE002044
:10415000FEF79FFE0020FEF79CFEC020FEF790FEBB
:104160001B20FEF796FEC120FEF78AFE0120FEF717
:1041700090FEC520FEF784FE3020FEF78AFE302038
:10418000FEF787FEC720FEF77BFEB720FEF781FE15
:104190003620FEF775FE4820FEF77BFE3A20FEF73C
:1041A0006FFE5520FEF775FEB120FEF769FE002078
:1041B000FEF76FFE1A20FEF76CFEB620FEF760FEDB
:1041C0000A20FEF766FE00E0A5E0A220FEF761FEF1
:1041D000F220FEF755FE0020FEF75BFE2620FEF7DC
:1041E0004FFE0120FEF755FEE020FEF749FE0F20AE
:1041F000FEF74FFE2A20FEF74CFE2820FEF749FE70
:104200000820FEF746FE0E20FEF743FE0820FEF7CC
:1042100040FE5420FEF73DFEA920FEF73AFE432063
:10422000FEF737FE0A20FEF734FE0F20FEF731FEC0
:104230000020FEF72EFE0020FEF72BFE0020FEF7EA
:1042400028FE0020FEF725FEE120FEF719FE0020E3
:10425000FEF71FFE1520FEF71CFE1720FEF719FEC5
:104260000720FEF716FE1120FEF713FE0620FEF7CC
:1042700010FE2B20FEF70DFE5620FEF70AFE3C2016
:10428000FEF707FE0520FEF704FE1020FEF701FEF4
:104290000F20FEF7FEFD3F20FEF7FBFD3F20FEF75F
:1042A000F8FD0F20FEF7F5FD2B20FEF7E9FD0020BD
:1042B0000CE00000C00000201C0100A0204C434482
:1042C0002049443A25780D0A00000000FEF7E1FD80
:1042D0000020FEF7DEFD0120FEF7DBFD3F20FEF7AC
:1042E000D8FD2A20FEF7CCFD0020FEF7D2FD0020ED
:1042F000FEF7CFFD0020FEF7CCFDEF20FEF7C9FD55
:104300001120FEF7BDFD782006F0A8FE2920FEF75B
:10431000B7FD03F01DB9FE48808846F604018842C7
:104320007ED11120FEF7ACFD142006F097FED020C0
:10433000FEF7A6FD0720FEF7ACFD4220FEF7A9FD23
:104340001D20FEF7A6FDD120FEF79AFD0020FEF706
:10435000A0FD1A20FEF79DFD0920FEF79AFDD22050
:10436000FEF78EFD0120FEF794FD2220FEF791FD61
:10437000C020FEF785FD1020FEF78BFD3B20FEF7E9
:1043800088FD0020FEF785FD0220FEF782FD11204A
:10439000FEF77FFDC520FEF773FD0320FEF779FDD4
:1043A000C820FEF76DFD0020FEF773FD2520FEF707
:1043B00070FD2120FEF76DFD0520FEF76AFD00204F
:1043C000FEF767FD0A20FEF764FD6520FEF761FD3C
:1043D0002520FEF75EFD7720FEF75BFD5020FEF7FF
:1043E00058FD0F20FEF755FD0020FEF752FDF82086
:1043F000FEF746FD0120FEF74CFDFE20FEF740FDD6
:104400000020FEF746FD0220FEF743FD2020FEF7C8
:1044100037FD3620FEF734FD0820FEF73AFD00E0B8
:104420002AE03A20FEF72CFD5520FEF732FD2B2026
:10443000FEF726FD0020FEF72CFD0020FEF729FDEB
:104440000120FEF726FD3F20FEF723FD2A20FEF780
:1044500017FD0020FEF71DFD0020FEF71AFD0120CC
:10446000FEF717FDDF20FEF714FD782006F0F6FDBD
:104470002920FEF705FD4CE7A548808845F210315C
:10448000884240F07C87ED20FEF7FAFC0120FEF721
:1044900000FDFE20FEF7FDFCEE20FEF7F1FCDE2025
:1044A000FEF7F7FC2120FEF7F4FCF120FEF7E8FC14
:1044B0000120FEF7EEFCDF20FEF7E2FC1020FEF705
:1044C000E8FCC420FEF7DCFC8F20FEF7E2FCC620EF
:1044D000FEF7D6FC0020FEF7DCFCE220FEF7D9FC5C
:1044E000E220FEF7D6FCE220FEF7D3FCBF20FEF769
:1044F000C7FCAA20FEF7CDFCB020FEF7C1FC0D20C2
:10450000FEF7C7FC0020FEF7C4FC0D20FEF7C1FC3F
:104510000020FEF7BEFC1120FEF7BBFC0020FEF7DA
:10452000B8FC1920FEF7B5FC0020FEF7B2FC2120F4
:10453000FEF7AFFC0020FEF7ACFC2D20FEF7A9FC37
:104540000020FEF7A6FC3D20FEF7A3FC0020FEF7AE
:10455000A0FC5D20FEF79DFC0020FEF79AFC5D208C
:10456000FEF797FC0020FEF794FCB120FEF788FCD4
:104570008020FEF78EFC0020FEF78BFC8B20FEF7E0
:1045800088FC0020FEF785FC9620FEF782FC0020C8
:10459000FEF77FFCB220FEF773FC0020FEF779FCEB
:1045A0000020FEF776FC0220FEF773FC0020FEF7E9
:1045B00070FC0320FEF76DFC0020FEF76AFCB320C0
:1045C000FEF75EFC0020FEF764FC0020FEF761FCB5
:1045D0000020FEF75EFC0020FEF75BFC0020FEF7EB
:1045E00058FC0020FEF755FC0020FEF752FC00208E
:1045F000FEF74FFC0020FEF74CFC0020FEF749FCC4
:104600000020FEF746FC0020FEF743FC0020FEF7EA
:1046100040FC0020FEF73DFC0020FEF73AFC0020A5
:10462000FEF737FC0020FEF734FC0020FEF731FCDB
:104630000020FEF72EFC0020FEF72BFC0020FEF7EA
:1046400028FC0020FEF725FC0020FEF722FC0020BD
:10465000FEF71FFCB420FEF713FC8B20FEF719FCBD
:104660000020FEF716FC9620FEF713FC0020FEF754
:1046700010FCA120FEF70DFC0020FEF70AFCB5207F
:10468000FEF7FEFB0220FEF704FC0020FEF701FC13
:104690000320FEF7FEFB0020FEF7FBFB0420FEF7E5
:1046A000F8FB0020FEF7F5FBB620FEF7E9FB002043
:1046B000FEF7EFFB0020FEF7ECFBB720FEF7E0FB78
:1046C0000020FEF7E6FB0020FEF7E3FB3F20FEF7AD
:1046D000E0FB0020FEF7DDFB5E20FEF7DAFB0020AA
:1046E000FEF7D7FB6420FEF7D4FB0020FEF7D1FBDA
:1046F0008C20FEF7CEFB0020FEF7CBFBAC20FEF7B4
:10470000C8FB0020FEF7C5FBDC20FEF7C2FB01E082
:10471000C00000200020FEF7BCFB7020FEF7B9FBB4
:104720000020FEF7B6FB9020FEF7B3FB0020FEF75B
:10473000B0FBEB20FEF7ADFB0020FEF7AAFBDC2070
:10474000FEF7A7FB0020FEF7A4FBB820FEF798FBBE
:104750000020FEF79EFB0020FEF79BFB0020FEF7EB
:1047600098FB0020FEF795FB0020FEF792FB00204F
:10477000FEF78FFB0020FEF78CFB0020FEF789FB85
:10478000BA20FEF77DFB2420FEF783FB0020FEF716
:1047900080FB0020FEF77DFB0020FEF77AFBC120A6
:1047A000FEF76EFB2020FEF774FB0020FEF771FB86
:1047B0005420FEF76EFB0020FEF76BFBFF20FEF798
:1047C00068FB0020FEF765FBC220FEF759FB0A20BC
:1047D000FEF75FFB0020FEF75CFB0420FEF759FBB1
:1047E0000020FEF756FBC320FEF74AFB3C20FEF7F5
:1047F00050FB0020FEF74DFB3A20FEF74AFB00205D
:10480000FEF747FB3920FEF744FB0020FEF741FB93
:104810003720FEF73EFB0020FEF73BFB3C20FEF777
:1048200038FB0020FEF735FB3620FEF732FB002078
:10483000FEF72FFB3220FEF72CFB0020FEF729FBB2
:104840002F20FEF726FB0020FEF723FB2C20FEF78F
:1048500020FB0020FEF71DFB2920FEF71AFB00209D
:10486000FEF717FB2620FEF714FB0020FEF711FBD6
:104870002420FEF70EFB0020FEF70BFB2420FEF7A2
:1048800008FB0020FEF705FB2320FEF702FB0020BB
:10489000FEF7FFFA3C20FEF7FCFA0020FEF7F9FADB
:1048A0003620FEF7F6FA0020FEF7F3FA3220FEF784
:1048B000F0FA0020FEF7EDFA2F20FEF7EAFA0020CA
:1048C000FEF7E7FA2C20FEF7E4FA0020FEF7E1FA03
:1048D0002920FEF7DEFA0020FEF7DBFA2620FEF79D
:1048E000D8FA0020FEF7D5FA2420FEF7D2FA0020ED
:1048F000FEF7CFFA2420FEF7CCFA0020FEF7C9FA23
:104900002320FEF7C6FA0020FEF7C3FAC420FEF704
:10491000B7FA6220FEF7BDFA0020FEF7BAFA0520CA
:10492000FEF7B7FA0020FEF7B4FA8420FEF7B1FADA
:104930000020FEF7AEFAF020FEF7ABFA0020FEF7FB
:10494000A8FA1820FEF7A5FA0020FEF7A2FAA42084
:10495000FEF79FFA0020FEF79CFA1820FEF799FA5E
:104960000020FEF796FA5020FEF793FA0020FEF79B
:1049700090FA0C20FEF78DFA0020FEF78AFA172035
:10498000FEF787FA0020FEF784FA9520FEF781FAF9
:104990000020FEF77EFAF320FEF77BFA0020FEF7F8
:1049A00078FAE620FEF775FA0020FEF772FAC520C5
:1049B000FEF766FA3220FEF76CFA0020FEF769FA7D
:1049C0004420FEF766FA0020FEF763FA6520FEF742
:1049D00060FA0020FEF75DFA7620FEF75AFA002012
:1049E000FEF757FA8820FEF754FA0020FEF751FA36
:1049F000C620FEF745FA2020FEF74BFA0020FEF70E
:104A000048FA1720FEF745FA0020FEF742FA012087
:104A1000FEF73FFA0020FEF73CFAC720FEF730FA17
:104A20000020FEF736FA0020FEF733FA0020FEF7EA
:104A300030FA0020FEF72DFAC820FEF721FA0020F8
:104A4000FEF727FA0020FEF724FA0020FEF721FAED
:104A50000020FEF71EFAC920FEF712FA0020FEF72A
:104A600018FA0020FEF715FA0020FEF712FA0020CF
:104A7000FEF70FFA0020FEF70CFA0020FEF709FA05
:104A80000020FEF706FA0020FEF703FA0020FEF7EA
:104A900000FA0020FEF7FDF90020FEF7FAF90020E9
:104AA000FEF7F7F90020FEF7F4F90020FEF7F1F920
:104AB0000020FEF7EEF90020FEF7EBF9E020FEF70C
:104AC000DFF91620FEF7E5F90020FEF7E2F91C20D9
:104AD000FEF7DFF90020FEF7DCF92120FEF7D9F917
:104AE0000020FEF7D6F93620FEF7D3F90020FEF7B6
:104AF000D0F94620FEF7CDF90020FEF7CAF9522082
:104B0000FEF7C7F90020FEF7C4F96420FEF7C1F9EB
:104B10000020FEF7BEF97A20FEF7BBF90020FEF771
:104B2000B8F98B20FEF7B5F90020FEF7B2F999200D
:104B3000FEF7AFF90020FEF7ACF9A820FEF7A9F9BF
:104B40000020FEF7A6F9B920FEF7A3F90020FEF732
:104B5000A0F9C420FEF79DF90020FEF79AF9CA20BB
:104B6000FEF797F90020FEF794F9D220FEF791F9AD
:104B70000020FEF78EF9D920FEF78BF90020FEF712
:104B800088F9E020FEF785F90020FEF782F9F3208E
:104B9000FEF77FF90020FEF77CF9E120FEF770F9BF
:104BA0001620FEF776F90020FEF773F91C20FEF7B9
:104BB00070F90020FEF76DF92220FEF76AF9002057
:104BC000FEF767F93620FEF764F90020FEF761F979
:104BD0004520FEF75EF90020FEF75BF95220FEF754
:104BE00058F90020FEF755F96420FEF752F900202D
:104BF000FEF74FF97A20FEF74CF90020FEF749F94D
:104C00008B20FEF746F90020FEF743F99920FEF7C6
:104C100040F90020FEF73DF9A820FEF73AF9002000
:104C2000FEF737F9B920FEF734F90020FEF731F925
:104C3000C420FEF72EF90020FEF72BF9CA20FEF75C
:104C400028F90020FEF725F9D220FEF722F90020EE
:104C5000FEF71FF9D820FEF71CF90020FEF719F91E
:104C6000E020FEF716F90020FEF713F9F320FEF717
:104C700010F90020FEF70DF9E220FEF701F90520FA
:104C8000FEF707F90020FEF704F90B20FEF701F903
:104C90000020FEF7FEF81B20FEF7FBF80020FEF7D1
:104CA000F8F83420FEF7F5F80020FEF7F2F844207B
:104CB000FEF7EFF80020FEF7ECF84F20FEF7E9F8DA
:104CC0000020FEF7E6F86120FEF7E3F80020FEF78B
:104CD000E0F87920FEF7DDF80020FEF7DAF888200A
:104CE000FEF7D7F80020FEF7D4F89720FEF7D1F8AA
:104CF0000020FEF7CEF8A620FEF7CBF80020FEF746
:104D0000C8F8B720FEF7C5F80020FEF7C2F8C220A9
:104D1000FEF7BFF80020FEF7BCF8C720FEF7B9F891
:104D20000020FEF7B6F8D120FEF7B3F80020FEF71A
:104D3000B0F8D620FEF7ADF80020FEF7AAF8DD2087
:104D4000FEF7A7F80020FEF7A4F8F320FEF7A1F87D
:104D50000020FEF79EF8E320FEF792F80520FEF70C
:104D600098F80020FEF795F80A20FEF792F8002048
:104D7000FEF78FF81C20FEF78CF80020FEF789F86C
:104D80003320FEF786F80020FEF783F84420FEF774
:104D900080F80020FEF77DF85020FEF77AF800201A
:104DA000FEF777F86220FEF774F80020FEF771F83E
:104DB0007820FEF76EF80020FEF76BF88820FEF7EB
:104DC00068F80020FEF765F89720FEF762F80020EB
:104DD000FEF75FF8A620FEF75CF80020FEF759F812
:104DE000B720FEF756F80020FEF753F8C220FEF772
:104DF00050F80020FEF74DF8C720FEF74AF80020D3
:104E0000FEF747F8D120FEF744F80020FEF741F8FE
:104E1000D520FEF73EF80020FEF73BF8DD20FEF738
:104E200038F80020FEF735F8F320FEF732F80020BE
:104E3000FEF72FF8E420FEF723F80120FEF729F80B
:104E40000020FEF726F80120FEF723F80020FEF7E9
:104E500020F80220FEF71DF80020FEF71AF82A209D
:104E6000FEF717F80020FEF714F83C20FEF711F8C3
:104E70000020FEF70EF84B20FEF70BF80020FEF79F
:104E800008F85D20FEF705F80020FEF702F8742010
:104E9000FDF7FFFF0020FDF7FCFF8420FDF7F9FF81
:104EA0000020FDF7F6FF9320FDF7F3FF0020FDF74C
:104EB000F0FFA220FDF7EDFF0020FDF7EAFFB32091
:104EC000FDF7E7FF0020FDF7E4FFBE20FDF7E1FF5F
:104ED0000020FDF7DEFFC420FDF7DBFF0020FDF71B
:104EE000D8FFCD20FDF7D5FF0020FDF7D2FFD3205E
:104EF000FDF7CFFF0020FDF7CCFFDD20FDF7C9FF58
:104F00000020FDF7C6FFF320FDF7C3FF0020FDF7EB
:104F1000C0FFE520FDF7B4FF0020FDF7BAFF002039
:104F2000FDF7B7FF0020FDF7B4FF0020FDF7B1FF4C
:104F30000220FDF7AEFF0020FDF7ABFF2920FDF7B3
:104F4000A8FF0020FDF7A5FF3C20FDF7A2FF0020F1
:104F5000FDF79FFF4B20FDF79CFF0020FDF799FF19
:104F60005D20FDF796FF0020FDF793FF7420FDF70D
:104F700090FF0020FDF78DFF8420FDF78AFF0020C1
:104F8000FDF787FF9320FDF784FF0020FDF781FFE9
:104F9000A220FDF77EFF0020FDF77BFFB320FDF789
:104FA00078FF0020FDF775FFBE20FDF772FF00209F
:104FB000FDF76FFFC420FDF76CFF0020FDF769FFD0
:104FC000CD20FDF766FF0020FDF763FFD320FDF73E
:104FD00060FF0020FDF75DFFDC20FDF75AFF002099
:104FE000FDF757FFF320FDF754FF0020FDF751FFB9
:104FF000E620FDF745FF1120FDF74BFF0020FDF7F0
:1050000048FF3420FDF745FF0020FDF742FF562002
:10501000FDF73FFF0020FDF73CFF7620FDF739FF4D
:105020000020FDF736FF7720FDF733FF0020FDF766
:1050300030FF6620FDF72DFF0020FDF72AFF8820B6
:10504000FDF727FF0020FDF724FF9920FDF721FF42
:105050000020FDF71EFFBB20FDF71BFF0020FDF722
:1050600018FF9920FDF715FF0020FDF712FF6620BD
:10507000FDF70FFF0020FDF70CFF5520FDF709FF9E
:105080000020FDF706FF5520FDF703FF0020FDF788
:1050900000FF4520FDF7FDFE0020FDF7FAFE43204E
:1050A000FDF7F7FE0020FDF7F4FE4420FDF7F1FECA
:1050B0000020FDF7EEFEE720FDF7E2FE3220FDF7CF
:1050C000E8FE0020FDF7E5FE5520FDF7E2FE00209A
:1050D000FDF7DFFE7620FDF7DCFE0020FDF7D9FEB0
:1050E0006620FDF7D6FE0020FDF7D3FE6720FDF712
:1050F000D0FE0020FDF7CDFE6720FDF7CAFE0020A0
:10510000FDF7C7FE8720FDF7C4FE0020FDF7C1FEB6
:105110009920FDF7BEFE0020FDF7BBFEBB20FDF78A
:10512000B8FE0020FDF7B5FE9920FDF7B2FE002085
:10513000FDF7AFFE7720FDF7ACFE0020FDF7A9FEDE
:105140004420FDF7A6FE0020FDF7A3FE5620FDF744
:10515000A0FE0020FDF79DFE2320FDF79AFE002013
:10516000FDF797FE3320FDF794FE0020FDF791FE3A
:105170004520FDF78EFE0020FDF78BFEE820FDF7B1
:105180007FFE0020FDF785FE0020FDF782FE9920BE
:10519000FDF77FFE0020FDF77CFE8720FDF779FEFE
:1051A0000020FDF776FE8820FDF773FE0020FDF756
:1051B00070FE7720FDF76DFE0020FDF76AFE662089
:1051C000FDF767FE0020FDF764FE8820FDF761FE15
:1051D0000020FDF75EFEAA20FDF75BFE0020FDF734
:1051E00058FEBB20FDF755FE0020FDF752FE99202A
:1051F000FDF74FFE0020FDF74CFE6620FDF749FE4F
:105200000020FDF746FE5520FDF743FE0020FDF788
:1052100040FE5520FDF73DFE0020FDF73AFE4420FC
:10522000FDF737FE0020FDF734FE4420FDF731FE88
:105230000020FDF72EFE5520FDF72BFE0020FDF788
:1052400028FEE920FDF71CFEAA20FDF722FE002023
:10525000FDF71FFE0020FDF71CFE0020FDF719FEE4
:105260000020FDF70DFEAA20FDF713FECF20FDF76D
:1052700007FE0020FDF70DFE0020FDF70AFE0020CE
:10528000FDF707FE0020FDF704FE0020FDF701FEFC
:105290000020FDF7FEFD0020FDF7FBFD0020FDF7DF
:1052A000F8FD0020FDF7F5FD0020FDF7F2FD0020E0
:1052B000FDF7EFFD0020FDF7ECFD0020FDF7E9FD17
:1052C0000020FDF7E6FD0020FDF7E3FD0020FDF7DF
:1052D000E0FD0020FDF7DDFDF020FDF7D1FD002011
:1052E000FDF7D7FD5020FDF7D4FD0020FDF7D1FDDF
:1052F0000020FDF7CEFD0020FDF7CBFDF320FDF7EC
:10530000BFFD0020FDF7C5FDF920FDF7B9FD062022
:10531000FDF7BFFD1020FDF7BCFD2920FDF7B9FD0D
:105320000020FDF7B6FD3A20FDF7AAFD5520FDF758
:10533000B0FD1120FDF7A4FD642005F08FFE2920AB
:10534000FDF79EFD3520FDF79BFD0020FDF7A1FD3B
:105350005120FDF795FDFF20FDF79BFD5320FDF744
:105360008FFD2C20FDF795FD5520FDF789FD82204E
:10537000FDF78FFD2C20FDF783FD02F0E9B8FE4814
:10538000808845F2105188427ED155214FF47040FB
:10539000FDF791FDAA214FF20100FDF78CFD52218E
:1053A0004FF20200FDF787FD08214FF20300FDF7E1
:1053B00082FD01214FF20400FDF77DFD0D214FF428
:1053C0003040FDF778FD0D214BF20100FDF773FD34
:1053D0000D214BF20200FDF76EFD34214FF43640F3
:1053E000FDF769FD34214BF20160FDF764FD3421C6
:1053F0004BF20260FDF75FFD0D214FF43140FDF7E8
:105400005AFD0D214BF20110FDF755FD0D214BF218
:105410000210FDF750FD34214FF43740FDF74BFDEE
:1054200034214BF20170FDF746FD34214BF202703E
:10543000FDF741FD00214FF43240FDF73CFD002116
:105440004BF20120FDF737FD00214BF20220FDF762
:1054500032FD24214FF43840FDF72DFD24214BF679
:105460000100FDF728FD24214BF60200FDF723FD86
:1054700001214FF43F40FDF71EFD0F214FF4334053
:10548000FDF719FD0F2100E0FEE34BF20130FDF7BF
:1054900012FD0F214BF20230FDF70DFD34214FF4C8
:1054A0003940FDF708FD34214BF60110FDF703FDEF
:1054B00034214BF60210FDF7FEFC08214FF4354075
:1054C000FDF7F9FC08214BF20150FDF7F4FC08212F
:1054D0004BF20250FDF7EFFC03214FF44240FDF781
:1054E000EAFC24214FF43A40FDF7E5FC24214BF679
:1054F0000120FDF7E0FC24214BF60220FDF7DBFC48
:1055000000214FF43C40FDF7D6FC78214BF60140DA
:10551000FDF7D1FC00214BF60240FDF7CCFC002149
:105520004FF43D40FDF7C7FC78214BF60150FDF7E5
:10553000C2FC00214BF60250FDF7BDFC00214FF4E8
:105540003E40FDF7B8FC64214BF60160FDF7B3FC6B
:1055500000214FF45140FDF7AEFC33214DF2011014
:10556000FDF7A9FC00214DF20210FDF7A4FC342147
:105570004DF20310FDF79FFC00214DF20410FDF7E2
:105580009AFC3A214DF20510FDF795FC00214DF2F1
:105590000610FDF790FC4A214DF20710FDF78BFC39
:1055A00000214DF20810FDF786FC5C214DF2091038
:1055B000FDF781FC00214DF20A10FDF77CFC8121F2
:1055C0004DF20B10FDF777FC00214DF20C10FDF7AA
:1055D00072FCA6214DF20D10FDF76DFC00214DF27D
:1055E0000E10FDF768FCE5214DF20F10FDF763FC8E
:1055F00001214DF21010FDF75EFC13214DF2111048
:10560000FDF759FC01214DF21210FDF754FC542115
:105610004DF21310FDF74FFC01214DF21410FDF770
:105620004AFC82214DF21510FDF745FC01214DF297
:105630001610FDF740FCCA214DF21710FDF73BFC98
:1056400002214DF21810FDF736FC00214DF2191021
:10565000FDF731FC02214DF21A10FDF72CFC01215F
:105660004DF21B10FDF727FC02214DF21C10FDF737
:1056700022FC34214DF21D10FDF71DFC02214DF2DC
:105680001E10FDF718FC67214DF21F10FDF713FCEB
:1056900002214DF22010FDF70EFC84214DF2211065
:1056A000FDF709FC02214DF22210FDF704FCA421B4
:1056B0004DF22310FDF7FFFB02214DF22410FDF700
:1056C000FAFBB7214DF22510FDF7F5FB02214DF253
:1056D0002610FDF7F0FBCF214DF22710FDF7EBFB75
:1056E00002214DF22810FDF7E6FBDE214DF22910D4
:1056F000FDF7E1FB02214DF22A10FDF7DCFBF22160
:105700004DF22B10FDF7D7FB02214DF22C10FDF7C7
:10571000D2FBFE214DF22D10FDF7CDFB03214DF202
:105720002E10FDF7C8FB10214DF22F10FDF7C3FB23
:1057300003214DF23010FDF7BEFB33214DF2311045
:10574000FDF7B9FB03214DF23210FDF7B4FB6D21DB
:105750004DF23310FDF7AFFB00214FF45240FDF73F
:10576000AAFB33214DF20120FDF7A5FB00214DF2EC
:105770000220FDF7A0FB01E0C000002034214DF223
:105780000320FDF798FB00214DF20420FDF793FB69
:105790003A214DF20520FDF78EFB00214DF2062047
:1057A000FDF789FB4A214DF20720FDF784FB00211C
:1057B0004DF20820FDF77FFB5C214DF20920FDF73B
:1057C0007AFB00214DF20A20FDF775FB81214DF295
:1057D0000B20FDF770FB00214DF20C20FDF76BFB59
:1057E000A6214DF20D20FDF766FB00214DF20E20A3
:1057F000FDF761FBE5214DF20F20FDF75CFB012178
:105800004DF21020FDF757FB13214DF21120FDF74B
:1058100052FB01214DF21220FDF74DFB54214DF2B8
:105820001320FDF748FB01214DF21420FDF743FB47
:1058300082214DF21520FDF73EFB01214DF216208D
:10584000FDF739FBCA214DF21720FDF734FB022189
:105850004DF21820FDF72FFB00214DF21920FDF726
:105860002AFB02214DF21A20FDF725FB01214DF202
:105870001B20FDF720FB02214DF21C20FDF71BFB36
:1058800034214DF21D20FDF716FB02214DF21E20A2
:10589000FDF711FB67214DF21F20FDF70CFB0221E4
:1058A0004DF22020FDF707FB84214DF22120FDF76A
:1058B00002FB02214DF22220FDF7FDFAA4214DF258
:1058C0002320FDF7F8FA02214DF22420FDF7F3FA28
:1058D000B7214DF22520FDF7EEFA02214DF22620E8
:1058E000FDF7E9FACF214DF22720FDF7E4FA022176
:1058F0004DF22820FDF7DFFADE214DF22920FDF7D9
:10590000DAFA02214DF22A20FDF7D5FAF2214DF202
:105910002B20FDF7D0FA02214DF22C20FDF7CBFA17
:10592000FE214DF22D20FDF7C6FA03214DF22E2067
:10593000FDF7C1FA10214DF22F20FDF7BCFA03212B
:105940004DF23020FDF7B7FA33214DF23120FDF74B
:10595000B2FA03214DF23220FDF7ADFA6D214DF27E
:105960003320FDF7A8FA00214FF45340FDF7A3FAC6
:1059700033214DF20130FDF79EFA00214DF2023045
:10598000FDF799FA34214DF20330FDF794FA002126
:105990004DF20430FDF78FFA3A214DF20530FDF754
:1059A0008AFA00214DF20630FDF785FA4A214DF2C0
:1059B0000730FDF780FA00214DF20830FDF77BFA41
:1059C0005C214DF20930FDF776FA00214DF20A30E4
:1059D000FDF771FA81214DF20B30FDF76CFA0021D1
:1059E0004DF20C30FDF767FAA6214DF20D30FDF7B0
:1059F00062FA00214DF20E30FDF75DFAE5214DF21D
:105A00000F30FDF758FA01214DF21030FDF753FA2F
:105A100013214DF21130FDF74EFA01214DF21230F3
:105A2000FDF749FA54214DF21330FDF744FA0121F4
:105A30004DF21430FDF73FFA82214DF21530FDF79B
:105A40003AFA01214DF21630FDF735FACA214DF22E
:105A50001730FDF730FA02214DF21830FDF72BFA1E
:105A600000214DF21930FDF726FA02214DF21A30CD
:105A7000FDF721FA01214DF21B30FDF71CFA02213E
:105A80004DF21C30FDF717FA34214DF21D30FDF7B1
:105A900012FA02214DF21E30FDF70DFA67214DF288
:105AA0001F30FDF708FA02214DF22030FDF703FA0E
:105AB00084214DF22130FDF7FEF902214DF2223012
:105AC000FDF7F9F9A4214DF22330FDF7F4F9022195
:105AD0004DF22430FDF7EFF9B7214DF22530FDF7F7
